:020000040800F2
:10000000000001208D1E00088993000895930008C8
:100010009D930008A5930008AD9300080000000020
:10002000000000000000000000000000C193000874
:10003000B593000800000000CD9300089954000813
:10004000D9930008E5930008F1930008FD93000898
:100050000994000815940008BD8200081D8300085B
:100060007D83000889830008958300082194000897
:100070002D94000839940008459400085194000814
:100080005D94000869940008759400088194000844
:100090008D94000899940008A5940008A183000895
:1000A000B1940008BD940008C9940008D5940008D4
:1000B0009D5A0008295C000859950008859500089C
:1000C000359C0008899C0008959C0008A19C0008AC
:1000D000AD9C000851690008F5A6000821A8000899
:1000E000F1840008B99C0008C59C0008D19C000858
:1000F000DD9C0008E99C0008F59C0008019D0008B3
:100100000D9D0008199D0008259D0008319D0008DF
:100110003D9D0008499D0008559D0008619D00080F
:100120006D9D0008799D0008859D0008919D00083F
:1001300010F0030F034670B4C9B210D002B30378B5
:100140008B421ED0013A013005E0CAB110F8014BD4
:10015000013A8C4217D010F0030F0346F5D1032A61
:1001600013D86AB1187888420DD0013A5C1C04E0BB
:1001700014F8015B013A8D4203D02046002AF7D1E2
:10018000104670BC70471846FBE741EA012646EA74
:100190000646184653F8044B86EA0404A4F10135D8
:1001A00025EA040414F0803F03D1043A1846032AD8
:1001B000EFD80346D5E700BF032A2DE9F00109D89F
:1001C0002AB10023CC5CC45401339342FAD1BDE878
:1001D000F00170470B468218014603E02478013392
:1001E00001F8014B11F0030F1C46F7D113F0030582
:1001F0005DD06E42C5F1040CED009B594FEACC0C6A
:1002000008E00434A7593B4607FA0CF748EA070709
:1002100041F8047B571A23FA05F8032FF1DC03E0B9
:1002200014F8013B01F8013B8A42F9D8CFE753F8B3
:10023000404C41F8404C53F83C4C41F83C4C53F88E
:10024000384C41F8384C53F8344C41F8344C53F89E
:10025000304C41F8304C53F82C4C41F82C4C53F8AE
:10026000284C41F8284C53F8244C41F8244C53F8BE
:10027000204C41F8204C53F81C4C41F81C4C53F8CE
:10028000184C41F8184C53F8144C41F8144C53F8DE
:10029000104C41F8104C53F80C4C41F80C4C53F8EE
:1002A000084C41F8084C53F8044C41F8044C561AD9
:1002B0001D460C46403340313F2EB8DC2B460FE044
:1002C00053F8101C44F8101C53F80C1C44F80C1C78
:1002D00053F8081C44F8081C53F8041C44F8041C88
:1002E000161B1D4610330F2E214604F11004E7DCC7
:1002F0002B4602E0246841F8044B551A1C46032D96
:1003000003F10403F6DC8FE7032AC9B270B408D8FE
:100310002AB10346121803F8011B9342FBD170BCAB
:1003200070478218044601E004F8011B14F0030F23
:10033000FAD14FF0013303FB01F31FE044F8403CD6
:1003400044F83C3C44F8383C44F8343C44F8303CF5
:1003500044F82C3C44F8283C44F8243C44F8203C25
:1003600044F81C3C44F8183C44F8143C44F8103C55
:1003700044F80C3C44F8083C44F8043C161B254661
:1003800040343F2EDADC2C4607E044F8103C44F8B9
:100390000C3C44F8083C44F8043C161B2546103439
:1003A0000F2EF2DC01E045F8043B541B032CFADC71
:1003B00001E005F8011B9542FBD3B0E7024640423D
:1003C00040EA020221F0004141EAD272C2F1FE424B
:1003D00002F57002504240EA0202D0170130704725
:1003E00002464042104321F0004141EAD070C0F182
:1003F000FE4000F57000C00F704700BF20F0030101
:1004000010F00300C0F1000051F8043B00F1040CAF
:100410004FEACC0C6FF000021CBF22FA0CF213431F
:100420004FF0010C4CEA0C2C4CEA0C4CA3EB0C02E8
:1004300022EA030212EACC1204BF51F8043B043052
:10044000F4D013F0FF0F1FBF013013F47F4F0130C2
:1004500013F47F0F18BF0130704700BF0000000089
:100460004A1E08BF7047C0F02481884240F21681BE
:10047000114200F01781B0FA80F3B1FA81F2A2EBD9
:100480000303C3F11F0304A202EB03134FF00002A6
:100490009F4600BFAFF30080B0EBC17F00BF42EBCF
:1004A000020228BFA0EBC170B0EB817F00BF42EB1E
:1004B000020228BFA0EB8170B0EB417F00BF42EB8E
:1004C000020228BFA0EB4170B0EB017F00BF42EBFE
:1004D000020228BFA0EB0170B0EBC16F00BF42EB7E
:1004E000020228BFA0EBC160B0EB816F00BF42EBFE
:1004F000020228BFA0EB8160B0EB416F00BF42EB6E
:10050000020228BFA0EB4160B0EB016F00BF42EBDD
:10051000020228BFA0EB0160B0EBC15F00BF42EB5D
:10052000020228BFA0EBC150B0EB815F00BF42EBDD
:10053000020228BFA0EB8150B0EB415F00BF42EB4D
:10054000020228BFA0EB4150B0EB015F00BF42EBBD
:10055000020228BFA0EB0150B0EBC14F00BF42EB3D
:10056000020228BFA0EBC140B0EB814F00BF42EBBD
:10057000020228BFA0EB8140B0EB414F00BF42EB2D
:10058000020228BFA0EB4140B0EB014F00BF42EB9D
:10059000020228BFA0EB0140B0EBC13F00BF42EB1D
:1005A000020228BFA0EBC130B0EB813F00BF42EB9D
:1005B000020228BFA0EB8130B0EB413F00BF42EB0D
:1005C000020228BFA0EB4130B0EB013F00BF42EB7D
:1005D000020228BFA0EB0130B0EBC12F00BF42EBFD
:1005E000020228BFA0EBC120B0EB812F00BF42EB7D
:1005F000020228BFA0EB8120B0EB412F00BF42EBED
:10060000020228BFA0EB4120B0EB012F00BF42EB5C
:10061000020228BFA0EB0120B0EBC11F00BF42EBDC
:10062000020228BFA0EBC110B0EB811F00BF42EB5C
:10063000020228BFA0EB8110B0EB411F00BF42EBCC
:10064000020228BFA0EB4110B0EB011F00BF42EB3C
:10065000020228BFA0EB0110B0EBC10F00BF42EBBC
:10066000020228BFA0EBC100B0EB810F00BF42EB3C
:10067000020228BFA0EB8100B0EB410F00BF42EBAC
:10068000020228BFA0EB4100B0EB010F00BF42EB1C
:10069000020228BFA0EB0100104670470CBF0120EA
:1006A00000207047B1FA81F2C2F11F0220FA02F075
:1006B000704708B14FF0FF3000F066B90029F8D05C
:1006C0002DE90340FFF7CCFEBDE8064002FB00F336
:1006D000A1EB0301704700BF002900F03E8180EAD2
:1006E000010C48BF49424A1E00F01F81030048BF69
:1006F00043428B4240F21E81114200F02381B3FA43
:1007000083F2B1FA81F0A0EB0202C2F11F0204A051
:1007100000EB02124FF00000974600BFAFF30080DD
:10072000B3EBC17F00BF40EB000028BFA3EBC17358
:10073000B3EB817F00BF40EB000028BFA3EB8173C8
:10074000B3EB417F00BF40EB000028BFA3EB417338
:10075000B3EB017F00BF40EB000028BFA3EB0173A8
:10076000B3EBC16F00BF40EB000028BFA3EBC16338
:10077000B3EB816F00BF40EB000028BFA3EB8163A8
:10078000B3EB416F00BF40EB000028BFA3EB416318
:10079000B3EB016F00BF40EB000028BFA3EB016388
:1007A000B3EBC15F00BF40EB000028BFA3EBC15318
:1007B000B3EB815F00BF40EB000028BFA3EB815388
:1007C000B3EB415F00BF40EB000028BFA3EB4153F8
:1007D000B3EB015F00BF40EB000028BFA3EB015368
:1007E000B3EBC14F00BF40EB000028BFA3EBC143F8
:1007F000B3EB814F00BF40EB000028BFA3EB814368
:10080000B3EB414F00BF40EB000028BFA3EB4143D7
:10081000B3EB014F00BF40EB000028BFA3EB014347
:10082000B3EBC13F00BF40EB000028BFA3EBC133D7
:10083000B3EB813F00BF40EB000028BFA3EB813347
:10084000B3EB413F00BF40EB000028BFA3EB4133B7
:10085000B3EB013F00BF40EB000028BFA3EB013327
:10086000B3EBC12F00BF40EB000028BFA3EBC123B7
:10087000B3EB812F00BF40EB000028BFA3EB812327
:10088000B3EB412F00BF40EB000028BFA3EB412397
:10089000B3EB012F00BF40EB000028BFA3EB012307
:1008A000B3EBC11F00BF40EB000028BFA3EBC11397
:1008B000B3EB811F00BF40EB000028BFA3EB811307
:1008C000B3EB411F00BF40EB000028BFA3EB411377
:1008D000B3EB011F00BF40EB000028BFA3EB0113E7
:1008E000B3EBC10F00BF40EB000028BFA3EBC10377
:1008F000B3EB810F00BF40EB000028BFA3EB8103E7
:10090000B3EB410F00BF40EB000028BFA3EB410356
:10091000B3EB010F00BF40EB000028BFA3EB0103C6
:10092000BCF1000F48BF404270479CEA000F48BF2F
:100930004042704738BF002004BF4FEAEC7040F0DF
:1009400001007047B1FA81F2C2F11F02BCF1000F41
:1009500023FA02F048BF404270470028C8BF6FF03A
:100960000040B8BF4FF0004000F00EB80029F4D0AE
:100970002DE90340FFF7B3FEBDE8064002FB00F39C
:10098000A1EB0301704700BF704700BF81F0004139
:1009900002E000BF83F0004330B54FEA41044FEA64
:1009A000430594EA050F08BF90EA020F1FBF54EAFF
:1009B000000C55EA020C7FEA645C7FEA655C00F09B
:1009C000E2804FEA5454D4EB5555B8BF6D420CDD6C
:1009D0002C4480EA020281EA030382EA000083EAEF
:1009E000010180EA020281EA0303362D88BF30BD8F
:1009F00011F0004F4FEA01314FF4801C4CEA1131E5
:100A000002D0404261EB410113F0004F4FEA033343
:100A10004CEA133302D0524263EB430394EA050FCE
:100A200000F0A780A4F10104D5F1200E0DDB02FA3D
:100A30000EFC22FA05F2801841F1000103FA0EF2D1
:100A4000801843FA05F359410EE0A5F120050EF197
:100A5000200E012A03FA0EFC28BF4CF0020C43FAC8
:100A600005F3C01851EBE37101F0004507D54FF0D5
:100A7000000EDCF1000C7EEB00006EEB0101B1F525
:100A8000801F1BD3B1F5001F0CD349085FEA30006B
:100A90004FEA3C0C04F101044FEA445212F5800F76
:100AA00080F09A80BCF1004F08BF5FEA500C50F113
:100AB000000041EB045141EA050130BD5FEA4C0CF6
:100AC000404141EB010111F4801FA4F10104E9D17F
:100AD00091F0000F04BF01460020B1FA81F308BF76
:100AE0002033A3F10B03B3F120020CDA0C3208DD42
:100AF00002F1140CC2F10C0201FA0CF021FA02F11D
:100B00000CE002F11402D8BFC2F1200C01FA02F18C
:100B100020FA0CFCDCBF41EA0C019040E41AA2BFB1
:100B200001EB0451294330BD6FEA04041F3C1CDA79
:100B30000C340EDC04F11404C4F1200220FA04F099
:100B400001FA02F340EA030021FA04F345EA030143
:100B500030BDC4F10C04C4F1200220FA02F001FA05
:100B600004F340EA0300294630BD21FA04F0294687
:100B700030BD94F0000F83F4801306BF81F4801120
:100B80000134013D4EE77FEA645C18BF7FEA655C93
:100B900029D094EA050F08BF90EA020F05D054EA65
:100BA000000C04BF1946104630BD91EA030F1EBF6A
:100BB0000021002030BD5FEA545C05D1400049416E
:100BC00028BF41F0004130BD14F580043CBF01F561
:100BD000801130BD01F0004545F0FE4141F4700147
:100BE0004FF0000030BD7FEA645C1ABF1946104622
:100BF0007FEA655C1CBF0B46024650EA013406BF23
:100C000052EA033591EA030F41F4002130BD00BFE1
:100C100090F0000F04BF0021704730B54FF480649E
:100C200004F132044FF000054FF0000150E700BF1F
:100C300090F0000F04BF0021704730B54FF480647E
:100C400004F1320410F0004548BF40424FF000016B
:100C50003EE700BF42004FEAE2014FEA31014FEAAE
:100C600002701FBF12F07F4393F07F4F81F06051FD
:100C7000704792F0000F14BF93F07F4F704730B56C
:100C80004FF4607401F0004521F0004120E700BFFF
:100C900050EA010208BF704730B54FF000050AE086
:100CA00050EA010208BF704730B511F0004502D587
:100CB000404261EB41014FF4806404F132045FEA89
:100CC000915C3FF4DCAE4FF003025FEADC0C18BF2E
:100CD00003325FEADC0C18BF033202EBDC02C2F124
:100CE000200300FA03FC20FA02F001FA03FE40EAB6
:100CF0000E0021FA02F11444C1E600BF70B54FF0B6
:100D0000FF0C4CF4E06C1CEA11541DBF1CEA135597
:100D100094EA0C0F95EA0C0F00F0DEF82C4481EAFF
:100D2000030621EA4C5123EA4C5350EA013518BF1F
:100D300052EA033541F4801143F4801338D0A0FB0C
:100D400002CE4FF00005E1FB02E506F00042E0FBB9
:100D500003E54FF00006E1FB03569CF0000F18BFBF
:100D60004EF0010EA4F1FF04B6F5007F64F5407467
:100D700004D25FEA4E0E6D4146EB060642EAC621FA
:100D800041EA55514FEAC52040EA5E504FEACE2E67
:100D9000B4F1FD0C88BFBCF5E06F1ED8BEF1004F6A
:100DA00008BF5FEA500E50F1000041EB045170BDE6
:100DB00006F0004646EA010140EA020081EA03012A
:100DC000B4EB5C04C2BFD4EB0C0541EA045170BD26
:100DD00041F480114FF0000E013C00F3AB8014F1A0
:100DE000360FDEBF002001F0004170BDC4F10004E9
:100DF000203C35DA0C341BDC04F11404C4F120056A
:100E000000FA05F320FA04F001FA05F240EA0200C4
:100E100001F0004221F0004110EBD37021FA04F6FA
:100E200042EB06015EEA430E08BF20EAD37070BDB4
:100E3000C4F10C04C4F1200500FA04F320FA05F013
:100E400001FA04F240EA020001F0004110EBD37015
:100E500041F100015EEA430E08BF20EAD37070BD85
:100E6000C4F1200500FA05F24EEA020E20FA04F35E
:100E700001FA05F243EA020321FA04F001F000410D
:100E800021FA04F220EA020000EBD3705EEA430E7E
:100E900008BF20EAD37070BD94F0000F0FD101F0AD
:100EA0000046400041EB010111F4801F08BF013CE6
:100EB000F7D041EA060195F0000F18BF704703F024
:100EC0000046520043EB030313F4801F08BF013DAB
:100ED000F7D043EA0603704794EA0C0F0CEA135567
:100EE00018BF95EA0C0F0CD050EA410618BF52EA21
:100EF0004306D1D181EA030101F000414FF0000027
:100F000070BD50EA410606BF1046194652EA430634
:100F100019D094EA0C0F02D150EA013613D195EAA8
:100F20000C0F05D152EA03361CBF104619460AD1F0
:100F300081EA030101F0004141F0FE4141F47001FA
:100F40004FF0000070BD41F0FE4141F4780170BDEA
:100F500070B54FF0FF0C4CF4E06C1CEA11541DBF4F
:100F60001CEA135594EA0C0F95EA0C0F00F0A7F851
:100F7000A4EB050481EA030E52EA03354FEA01317E
:100F800000F088804FEA03334FF0805545EA131391
:100F900043EA12634FEA022245EA111545EA106559
:100FA0004FEA00260EF000419D4208BF964244F1F0
:100FB000FD0404F5407402D25B084FEA3202B61A0F
:100FC00065EB03055B084FEA32024FF480104FF4E3
:100FD000002CB6EB020E75EB030E22BFB61A754657
:100FE00040EA0C005B084FEA3202B6EB020E75EBEA
:100FF000030E22BFB61A754640EA5C005B084FEA52
:101000003202B6EB020E75EB030E22BFB61A75461E
:1010100040EA9C005B084FEA3202B6EB020E75EB29
:10102000030E22BFB61A754640EADC0055EA060EEA
:1010300018D04FEA051545EA16754FEA06164FEA2D
:10104000C30343EA52734FEAC2025FEA1C1CC0D1D9
:1010500011F4801F0BD141EA00014FF000004FF066
:10106000004CB6E711F4801F04BF01430020B4F127
:10107000FD0C88BFBCF5E06F3FF6AFAEB5EB030CDF
:1010800004BFB6EB020C5FEA500C50F1000041EBDC
:10109000045170BD0EF0004E4EEA113114EB5C04A9
:1010A000C2BFD4EB0C0541EA045170BD41F480117C
:1010B0004FF0000E013C90E645EA060E8DE60CEA84
:1010C000135594EA0C0F08BF95EA0C0F3FF43BAFA1
:1010D00094EA0C0F0AD150EA01347FF434AF95EA58
:1010E0000C0F7FF425AF104619462CE795EA0C0F3C
:1010F00006D152EA03353FF4FDAE1046194622E709
:1011000050EA410618BF52EA43067FF4C5AE50EAE2
:1011100041047FF40DAF52EA43057FF4EBAE12E7D2
:101120004FF0FF3C06E000BF4FF0010C02E000BFB3
:101130004FF0010C4DF804CD4FEA410C7FEA6C5C96
:101140004FEA430C18BF7FEA6C5C1BD001B050EA39
:10115000410C0CBF52EA430C91EA030F02BF90EA24
:10116000020F0020704710F1000F91EA030F58BFE3
:10117000994208BF90422CBFD8176FEAE37040F045
:10118000010070474FEA410C7FEA6C5C02D150EAE3
:10119000013C07D14FEA430C7FEA6C5CD6D152EA9E
:1011A000033CD3D05DF8040B704700BF8446104663
:1011B00062468C461946634600E000BF01B5FFF762
:1011C000B7FF002848BF10F1000F01BD4DF808ED32
:1011D000FFF7F4FF0CBF012000205DF808FB00BF03
:1011E0004DF808EDFFF7EAFF34BF012000205DF85D
:1011F00008FB00BF4DF808EDFFF7E0FF94BF0120AA
:1012000000205DF808FB00BF4DF808EDFFF7CEFFAA
:1012100094BF012000205DF808FB00BF4DF808EDE9
:10122000FFF7C4FF34BF012000205DF808FB00BFBA
:101230004FEA410212F5001215D211D56FF47873FE
:10124000B3EB625212D94FEAC12343F0004343EAA1
:10125000505311F0004F23FA02F018BF404270477C
:101260004FF00000704750EA013005D111F0004006
:1012700008BF6FF0004070474FF00000704700BF9C
:1012800080F0004002E000BF81F0004142001FBF3B
:101290005FEA410392EA030F7FEA226C7FEA236C44
:1012A0006AD04FEA1262D2EB1363C1BFD218414039
:1012B00048404140B8BF5B42192B88BF704710F0CF
:1012C000004F40F4000020F07F4018BF404211F072
:1012D000004F41F4000121F07F4118BF494292EADA
:1012E000030F3FD0A2F1010241FA03FC10EB0C0006
:1012F000C3F1200301FA03F100F0004302D5494293
:1013000060EB4000B0F5000F13D3B0F1807F06D33F
:1013100040084FEA310102F10102FE2A51D2B1F137
:10132000004F40EBC25008BF20F0010040EA03002C
:101330007047490040EB000010F4000FA2F10102D9
:10134000EDD1B0FA80FCACF1080CB2EB0C0200FA63
:101350000CF0AABF00EBC25052421843BCBFD040B1
:101360001843704792F0000F81F4000106BF80F42B
:1013700000000132013BB5E74FEA41037FEA226CEE
:1013800018BF7FEA236C21D092EA030F04D092F0B9
:10139000000F08BF0846704790EA010F1CBF0020ED
:1013A000704712F07F4F04D1400028BF40F000404A
:1013B000704712F100723CBF00F50000704700F06A
:1013C000004343F0FE4040F4000070477FEA226291
:1013D00016BF08467FEA23630146420206BF5FEA62
:1013E000412390EA010F40F4800070474FF0000362
:1013F00004E000BF10F0004348BF40425FEA000C29
:1014000008BF704743F0964301464FF000001CE0D0
:1014100050EA010208BF70474FF000030AE000BF26
:1014200050EA010208BF704711F0004302D5404264
:1014300061EB41015FEA010C02BF844601460020D6
:1014400043F0B64308BFA3F18053A3F50003BCFAF1
:101450008CF2083AA3EBC25310DB01FA02FC63449E
:1014600000FA02FCC2F12002BCF1004F20FA02F2A5
:1014700043EB020008BF20F00100704702F1200298
:1014800001FA02FCC2F1200250EA4C0021FA02F2F9
:1014900043EB020008BF20EADC7070474FF0FF0CFE
:1014A0001CEAD0521EBF1CEAD15392EA0C0F93EAF9
:1014B0000C0F6FD01A4480EA010C400218BF5FEA9B
:1014C00041211ED04FF0006343EA501043EA51110E
:1014D000A0FB01310CF00040B1F5000F3EBF490008
:1014E00041EAD3715B0040EA010062F17F02FD2A0C
:1014F0001DD8B3F1004F40EBC25008BF20F00100EF
:10150000704790F0000F0CF0004C08BF49024CEA05
:10151000502040EA51207F3AC2BFD2F1FF0340EA97
:10152000C250704740F400004FF00003013A5DDC08
:1015300012F1190FDCBF00F000407047C2F1000249
:10154000410021FA02F1C2F1200200FA02FC5FEA36
:10155000310040F1000053EA4C0308BF20EADC7080
:10156000704792F0000F00F0004C02BF400010F4F2
:10157000000F013AF9D040EA0C0093F0000F01F09F
:10158000004C02BF490011F4000F013BF9D041EAC1
:101590000C018FE70CEAD15392EA0C0F18BF93EAC3
:1015A0000C0F0AD030F0004C18BF31F0004CD8D1ED
:1015B00080EA010000F00040704790F0000F17BF74
:1015C00090F0004F084691F0000F91F0004F14D0BA
:1015D00092EA0C0F01D142020FD193EA0C0F03D112
:1015E0004B0218BF084608D180EA010000F0004015
:1015F00040F0FE4040F40000704740F0FE4040F4F0
:10160000400070474FF0FF0C1CEAD0521EBF1CEA8E
:10161000D15392EA0C0F93EA0C0F69D0A2EB0302AC
:1016200080EA010C49024FEA402037D04FF0805346
:1016300043EA111143EA10130CF000408B4238BF0B
:101640005B0042F17D024FF4000C8B4224BF5B1A19
:1016500040EA0C00B3EB510F24BFA3EB510340EA67
:101660005C00B3EB910F24BFA3EB910340EA9C0015
:10167000B3EBD10F24BFA3EBD10340EADC001B0185
:1016800018BF5FEA1C1CE0D1FD2A3FF650AF8B4229
:1016900040EBC25008BF20F0010070470CF0004C36
:1016A0004CEA50207F32C2BFD2F1FF0340EAC25061
:1016B000704740F400004FF00003013A37E792F022
:1016C000000F00F0004C02BF400010F4000F013A80
:1016D000F9D040EA0C0093F0000F01F0004C02BF7B
:1016E000490011F4000F013BF9D041EA0C0195E7E4
:1016F0000CEAD15392EA0C0F08D142027FF47DAF7D
:1017000093EA0C0F7FF470AF084676E793EA0C0F6C
:1017100004D14B023FF44CAF08466EE730F0004C6A
:1017200018BF31F0004CCAD130F000427FF45CAFFA
:1017300031F000437FF43CAF5FE700BF42000ED2C0
:10174000B2F1FE4F0BD34FF09E03B3EB126209D4FC
:101750004FEA002343F0004323FA02F070474FF0B2
:101760000000704712F1610F01D1420202D14FF027
:10177000FF3070474FF00000704700BF73B96AB97F
:10178000002908BF0028BCBF00204FF00041C4BFA3
:101790006FF000414FF0FF30FFF7F6B882B0EC4633
:1017A0002DE9005000F006F8DDF804E002B00CBCB2
:1017B000704700BF2DE970431646804689461D4696
:1017C00000F028F800FB05F3A0FB064506FB0136F8
:1017D000069B7519B8EB040469EB0505C3E90045E0
:1017E000BDE870832DE970431646804689461D4644
:1017F00000F0C2F900FB05F3A0FB064506FB01362D
:10180000069B7519B8EB040469EB0505C3E90045AF
:10181000BDE8708300292DE9F04F1C4685B0C0F269
:10182000CB800026002CC0F2C2808C46174614469E
:10183000054688469A46002B49D18A426DD9B2FAAC
:1018400082F353B1C3F1200001FA03F835FA00F234
:1018500017FA03F442EA08089D404FEA144A40464A
:1018600051461FFA84FBFEF7FBFD51462F0C8146C3
:101870004046FEF723FF0BFB09F347EA01484345C7
:1018800009D918EB040809F1FF3904D2434584BF94
:1018900009F1FF39A044C3EB080851464046ADB2F8
:1018A000FEF7DEFD514607464046FEF707FF0BFBFD
:1018B00007FB45EA0145AB4505D9013F2D1902D289
:1018C000AB4588BF013F47EA0949002403E08B424A
:1018D0000CD90024A1464A46234616B1524263EB76
:1018E00043031046194605B0BDE8F08FB3FA83F400
:1018F000002C40F0B4808B424FF001092CBF4FF018
:10190000000C4FF0010C82428CBF67464CF001077F
:10191000002FE0D13C46B946DDE722B9012011464F
:10192000FEF79EFD0446B4FA84F3002B4AD1C4EBC3
:101930000808270C1FFA84FA012102913946404613
:10194000FEF78EFD39464FEA154B81464046FEF7BD
:10195000B5FE0AFB09F34BEA014B5B4509D91BEBCA
:10196000040B09F1FF3904D25B4584BF09F1FF394B
:10197000A344C3EB0B0B39465846ADB2FEF770FDDE
:10198000394680465846FEF799FE0AFB08FA45EAB2
:101990000145AA4507D92D1908F1FF3803D2AA45F8
:1019A00088BF08F1FF3848EA0949029C93E7F643EB
:1019B000524263EB430338E7404261EB41014FF091
:1019C000FF362FE79C40C3F1200028FA00FA08FAFE
:1019D00003FB270C35FA00F23946504642EA0B0267
:1019E0009D400292FEF73CFD394683465046FEF785
:1019F00065FE029B1FFA84FA4FEA13490AFB0BF3B8
:101A000049EA0148434505D918EB04080BF1FF3BAF
:101A1000C0F0AB80C3EB080839464046FEF720FD16
:101A2000394681464046FEF749FE029A0AFB09F311
:101A30001FFA82FC4CEA0148434509D918EB040817
:101A400009F1FF3904D2434584BF09F1FF39A044AD
:101A500049EA0B4EC3EB0808CDF808E06EE7C4F185
:101A6000200003FA04FA32FA00F321FA00F843EAFC
:101A70000A0A35FA00F201FA04F940464FEA1A4B15
:101A800042EA09010391594617FA04F30293FEF75B
:101A9000E7FC594681464046FEF710FE1FFA8AF3DE
:101AA000039803FB09F2070C47EA0148424504D9B1
:101AB00018EB0A0809F1FF3951D3C2EB080859465F
:101AC00040460193FEF7CCFC594607464046FEF7D8
:101AD000F5FD0198039A00FB07F31FFA82FC4CEA1C
:101AE000014C634507D9013F1CEB0A0C03D2634547
:101AF00001D9013FD44447EA0949029FC3EB0C03D3
:101B00001FFA89FE4FEA1940B9B23F0C01FB0EF8EB
:101B100001FB00F107FB0E1207FB00FC02EB184271
:101B2000914288BF0CF5803C0CEB124E734512D3EA
:101B30004FEA02421FFA88F814BF0023012302EB88
:101B4000080C15FA04F464452CBF002403F00104CA
:101B5000002C3FF4C0AE09F1FF390024BBE642453A
:101B600084BF09F1FF39D044A7E7434584BF0BF197
:101B7000FF3BA0444EE700BF2DE9F04F054683B080
:101B80000C46174680460E46002B4FD18A4263D939
:101B9000B2FA82F353B1C3F1200011FA03F635FA19
:101BA00000F29F4042EA060605FA03F83C0C304674
:101BB00021461FFA87FAFEF753FC21464FEA1845E3
:101BC00081463046FEF77AFD0AFB09F345EA0146F5
:101BD000B34208D9F61909F1FF3904D2B34284BFE0
:101BE00009F1FF39F619F61A214630461FFA88F82E
:101BF000FEF736FC214605463046FEF75FFD0AFB40
:101C000005FA48EA0148C24506D9013D18EB070824
:101C100002D2C24588BF013D45EA094A0026314645
:101C2000D046B146504603B0BDE8F08F8B425BD83A
:101C3000B3FA83F6002E5AD18B424FF0010A2CBF23
:101C40000024012482428CBF254644F00105002D6A
:101C5000E5D12E46AA46E2E722B901201146FEF759
:101C6000FFFB0746B7FA87F3002B40F0BB80E41B6D
:101C70004FEA174BBDB2012659462046FEF7F0FB4E
:101C8000594682462046FEF719FD4FEA184C05FBDF
:101C90000AF34CEA0144A34208D9E4190AF1FF3AD5
:101CA00004D2A34284BF0AF1FF3AE419E41A594668
:101CB0002046FEF7D5FB594681462046FEF7FEFC3E
:101CC0001FFA88F305FB09F543EA0148454508D9A1
:101CD00018EB070809F1FF3903D2454588BF09F120
:101CE000FF3949EA0A4A9AE70026B24697E7C6F161
:101CF000200013FA06F132FA00F735FA00F30F4329
:101D000024FA00FBB44058464FEA174843EA04015E
:101D10000191414612FA06F40094FEF7A1FB4146F8
:101D2000BCB282465846FEF7C9FC019A04FB0AF38E
:101D30004FEA124B4BEA014B5B4505D91BEB070BF6
:101D40000AF1FF3AC0F09680C3EB0B0B41465846B0
:101D5000FEF786FB414681465846FEF7AFFC019AE6
:101D600004FB09F41FFA82F848EA01439C4203D9B4
:101D7000DB1909F1FF3977D3009F49EA0A4A1C1B96
:101D80001FFA8AF11FFA87F83A0C4FEA1A4708FB44
:101D900001FC08FB07F302FB013002FB07F900EB33
:101DA0001C418B4288BF09F5803909EB114E7445FF
:101DB00014D34FEA01491FFA8CF314BF4FF0000E01
:101DC0004FF0010E09EB030C15FA06F666452CBF21
:101DD00000260EF00106002E3FF421AF0AF1FF3A73
:101DE00000261CE79F40C3F1200924FA09F614FAE3
:101DF00003F24FEA174B25FA09FA5946304605FA1D
:101E000003F84AEA020AFEF72BFB5946BDB24FEA35
:101E10001A4481463046FEF751FC05FB09F344EABB
:101E20000144A34203D9E41909F1FF3928D3E41A84
:101E300059462046FEF714FB594606462046FEF753
:101E40003DFC1FFA8AF005FB06F340EA0144A34279
:101E500006D9013EE41903D2A34201D9013EE41997
:101E6000E41A46EA094607E79C4284BF09F1FF39B4
:101E7000DB1981E75B4584BF0AF1FF3ABB4463E7A6
:101E8000A34284BF09F1FF39E419D0E7684620F086
:101E900007018D462DE9F14FADF5287D12AF40F6D3
:101EA0001C53C0F60103C7F8503240F20003C2F2DF
:101EB0000003C7F84C3211E0D7F850321A68D7F84F
:101EC0004C321A60D7F84C3203F10403C7F84C3295
:101ED000D7F8503203F10403C7F85032D7F84C2238
:101EE00040F2F013C2F200039A42E5D340F2F0133D
:101EF000C2F20003C7F84C320AE0D7F84C324FF078
:101F000000021A60D7F84C3203F10403C7F84C32D0
:101F1000D7F84C2241F29423C2F200039A42ECD348
:101F200040F2F013C2F200034FF000021A7040F2C8
:101F3000F413C2F200034FF000021A6040F2F813EB
:101F4000C2F200034FF000021A7040F2FC13C2F21A
:101F500000034FF000021A6040F20023C2F20003B7
:101F60004FF000021A6040F20423C2F200034FF067
:101F700000021A7040F20523C2F200034FF0000283
:101F80001A7040F20823C2F200034FF0FF021A60F9
:101F900040F20C23C2F200034FF0FF021A7040F22D
:101FA0000D23C2F200034FF000021A704FF000033D
:101FB000C7F8543219E040F63C03C2F20003D7F8E8
:101FC00054229B184FF07F021A7040F64813C2F259
:101FD0000003D7F854229B184FF07F021A70D7F8ED
:101FE000543203F10103C7F85432D7F854320B2BA3
:101FF000E1DD40F63C03C2F200034FF00002DA716B
:1020000040F63C03C2F200034FF000021A7240F6A1
:102010004813C2F200034FF00002DA7140F6481391
:10202000C2F200034FF000021A7205F08FFB00F0BD
:1020300069FD03F03DFF40F2F013C2F200034FF0E0
:1020400001021A7002F098FF0346002B00F09E82F6
:102050004FF0C80003F066F909F03AF94FF020009C
:1020600002F064FE0346002B6BD040F2F813C2F27C
:1020700000031B78002B64D140F63C03C2F200033E
:102080001B784FF00100194606F0A8FB40F63C0310
:10209000C2F200035B784FF00200194606F09EFB87
:1020A00040F63C03C2F200039B784FF00300194650
:1020B00006F094FB40F63C03C2F20003DB784FF0DD
:1020C0000400194606F08AFB40F63C03C2F2000306
:1020D0001B794FF00500194606F080FB40F64813C7
:1020E000C2F200031B784FF00600194606F076FB9B
:1020F00040F64813C2F200035B784FF00700194620
:1021000006F06CFB40F64813C2F200039B784FF0D8
:102110000800194606F062FB40F64813C2F20003BD
:10212000DB784FF00900194606F058FB40F64813DB
:10213000C2F200031B794FF00A00194606F04EFB6D
:102140009AE74FF00A0003F0EDF840F20D23C2F2D7
:1021500000031B78002B0CD04FF47A7003F0E2F8E8
:1021600040F20D23C2F200034FF000021A7009F092
:10217000AFF84FF0320003F0D5F84FF00003C7F886
:10218000483207F13C0240F29C13C0F601031B8861
:10219000138002F102024FF4FF7310464FF000016A
:1021A0001A46FEF7B1F84FF00003C7F8483236E0A0
:1021B000D7F84832DBB203F10103DBB2184605F071
:1021C000F3FB0346002B13D1D7F84832DBB203F1FF
:1021D0000103DBB2184605F0DFFD034603F10303FC
:1021E000DAB207F50F71D7F84832CB181A7010E041
:1021F000D7F84832DBB203F10103DBB2184605F031
:102200001DFD03461A4607F50F71D7F84832CB1863
:102210001A70D7F8483203F10103C7F84832D7F8EB
:1022200048320B2BC4DD97F83C321E4697F83D32FE
:102230001D4697F83E32184697F83F321C4697F8ED
:1022400040327B6397F841323B6397F84232FB623E
:1022500097F843329B4697F844329A4697F84532AE
:10226000994697F84632984697F847329C4640F28E
:102270001033C2F200031B681B799E4640F21033F4
:10228000C2F200031B685B79194640F2F813C2F2F0
:1022900000031B781A4607F13C0300900194786B09
:1022A0000290386B0390F86A0490CDF814B0CDF822
:1022B00018A0CDF81C90CDF82080CDF824C0CDF822
:1022C00028E00B910C92184640F2FC01C0F6010187
:1022D00032462B460CF0D0FA4FF00003C7F84832D4
:1022E00007F13C02D7F84832D3181B78002B49D1AC
:1022F0004FF00D0007F07EFD4FF0320003F012F8B2
:102300004FF0010005F0CCFC05464FF0020005F04F
:10231000C7FC04464FF0030005F0C2FC83464FF0B3
:10232000040005F0BDFC82464FF0050005F0B8FC46
:1023300081464FF0060005F0B3FC80464FF00700E1
:1023400005F0AEFC06464FF0080005F0A9FC024679
:1023500007F13C03CDF800B0CDF804A0CDF808900B
:10236000CDF80C8004960592184640F23011C0F664
:1023700001012A4623460CF07FFA4FF00003C7F80C
:10238000483210E007F13C02D7F84832D3181B78E6
:102390005BB2D7F8482202F10102C7F8482218467A
:1023A00007F028FD9CE707F13C02D7F84832D31824
:1023B0001B78002B40F0BB804FF00D0007F01AFD9A
:1023C0004FF0320002F0AEFF40F68C53C2F2000331
:1023D0001B68BB6240F68C53C2F200039B687B62B1
:1023E00040F68C53C2F200031B699E4640F68C53A4
:1023F000C2F200039B699C4640F68C53C2F2000374
:102400001B6A984640F68C53C2F200039B6A9A46B8
:1024100040F68C53C2F200031B6B9B4640F68C5374
:10242000C2F200039B6B3B6240F68C53C2F2000386
:102430001B6CFB6140F68C53C2F200039B6CBB61CA
:1024400040F68C53C2F200039B889BB27B6140F63E
:102450008C53C2F200039B899BB23B6140F68C53C4
:10246000C2F200039B8A9BB2FB6040F68C53C2F21F
:1024700000039B8B9BB2994640F68C53C2F200033B
:102480009B8C9BB21E4640F68C53C2F200039B8D80
:102490009BB21D4640F68C53C2F200039B8E9BB24A
:1024A0001C4640F68C53C2F200039B8F9BB2184629
:1024B00040F68C53C2F20003B3F844309BB2194685
:1024C00040F68C53C2F20003B3F84C309BB21A466C
:1024D00007F13C037B60CDF800E0CDF804C0CDF8F7
:1024E0000880CDF80CA0CDF810B03B6A0593FB69CD
:1024F0000693BB6907937B6908933B690993FB6863
:102500000A93CDF82C900C960D950E940F90109187
:102510001192786840F25011C0F60101BA6A7B6AE4
:102520000CF0AAF94FF00003C7F8483210E007F1A9
:102530003C02D7F84832D3181B785BB2D7F8482250
:1025400002F10102C7F84822184607F053FC2AE7B7
:1025500007F13C02D7F84832D3181B78002B04D17E
:102560004FF00D0007F046FCEBE507F13C02D7F811
:102570004832D3181B785BB2D7F8482202F1010227
:10258000C7F84822184607F035FCE1E740F2F4139B
:10259000C2F200031B68002B1ED140F2FC13C2F2F2
:1025A00000031B68002B17D14FF0C80002F0BAFEE1
:1025B00003E04FF0640002F0B5FE40F21033C2F2C7
:1025C00000031B689B78082BF3D14FF0640002F0E6
:1025D000A9FE00F087FA01E000F002F8FEE700BF74
:1025E00080B584B000AF40F20023C2F200034FF088
:1025F00000021A6040F20823C2F200034FF0FF020B
:102600001A6002F0F1FC4FF0C80002F08BFE03E00C
:102610004FF0640002F086FE40F21033C2F2000375
:102620001B689B78082BF3D14FF00003FB6036E06A
:10263000FB6803F16403FB60FA6844F6D353C1F20C
:10264000620383FB02134FEAE3114FEAE273CB1AF2
:102650004FF4FA6101FB03F3D31A002B1BD140F2B4
:10266000F413C2F200031A6840F2FC13C2F2000332
:102670001B6840F29C30C0F6010011461A4606F075
:102680004BFE4FF0320002F04DFE40F2B830C0F683
:10269000010006F041FE4FF0640002F043FE40F2FC
:1026A000F413C2F200031B68B3F1FF3F0FD040F2F6
:1026B000FC13C2F200031B68B3F1FF3F07D040F2E6
:1026C0001033C2F200031B68DB78002BB0D040F25D
:1026D0001033C2F200031B68DB7803F00803002B01
:1026E0000DD040F2F413C2F200034FF0FF321A6033
:1026F00040F2FC13C2F200034FF0FF321A6040F2C6
:10270000F413C2F200031B68B3F1FF3F37D140F26C
:10271000D030C0F6010006F0FFFD40F20523C2F202
:1027200000034FF001021A7000F05CFA40F205233A
:10273000C2F200034FF000021A7003E04FF0640091
:1027400002F0F0FD02F042FB0346002BF6D002F04F
:10275000BBFD03461A4640F20023C2F200031A6092
:1027600002F014FB0346002B04D04FF0000000F0F1
:102770003FFA03E04FF0000001F042FEFEE702F0F6
:1027800033FB0346002B00F0A88140F2F413C2F2A1
:1027900000031B68002B06D140F2F413C2F20003C1
:1027A0004FF001021A6002F011FB0346002B3ED1EC
:1027B0004FF00003BB6000E000BF4FF0640002F088
:1027C000B1FD40F21033C2F200031B68DB7803F066
:1027D0000803002B03D04FF0060002F0BBFABB68E1
:1027E00003F16403BB60BA6844F6D353C1F26203D9
:1027F00083FB02134FEAE3114FEAE273CB1A4FF463
:10280000FA6101FB03F3D31A002BD5D140F2F83063
:10281000C0F6010006F080FD4FF0320002F082FDAC
:1028200040F21C40C0F6010006F076FDC5E702F05C
:10283000ADFA0346002B00F00A814FF000037B60E5
:1028400086E04FF0640002F06DFD40F21033C2F2FA
:1028500000031B68DB7803F00803002B23D040F251
:102860001033C2F200031B68DB7823F07F03DBB276
:102870004FF00200194602F043FA40F21033C2F260
:1028800000031B68DB7803F04003002B0CBF002320
:102890000123DBB24FF00100194602F031FA4FF08C
:1028A0000B0002F057FA7B6803F164037B607A68DF
:1028B00044F6D353C1F2620383FB02134FEAE311E0
:1028C0004FEAE273CB1A4FF4FA6101FB03F3D31A18
:1028D000002B3DD140F2F413C2F200031A6840F21B
:1028E000FC13C2F200031B6840F29C30C0F60100EA
:1028F00011461A4606F010FD4FF0320002F012FDAC
:1029000040F2F413C2F200031A6840F2FC13C2F260
:1029100000031B6840F23C40C0F6010011461A4615
:1029200006F0FAFC4FF0320002F0FCFC40F2F41327
:10293000C2F200031A6840F2FC13C2F200031B68E3
:1029400040F27040C0F6010011461A4606F0E4FC61
:1029500040F21033C2F200031B68DB7803F001037E
:10296000002B0AD140F21033C2F200031B68DB785F
:1029700003F00203002B3FF464AF40F20423C2F2E1
:1029800000031B78002B20D140F21033C2F2000369
:102990001B685B7B002B18D140F21033C2F200039E
:1029A0001B689B7B002B10D140F21033C2F2000356
:1029B0001B685B7E002B08D140F21033C2F200038B
:1029C0001B689B7E002B3FF43CAF40F2F413C2F235
:1029D00000031B68012B2FD040F20023C2F200033A
:1029E0004FF000021A6040F20823C2F200034FF0D9
:1029F000FF021A6002F068FC03461A4640F2002308
:102A0000C2F200031A6040F20523C2F200034FF045
:102A100001021A7000F0E6F840F20523C2F200034A
:102A20004FF000021A7040F2F413C2F200031B6868
:102A3000184600F0DDF809E04FF001004FF0010109
:102A400002F05EF94FF0030002F084F9FEE740F275
:102A5000FC13C2F200031B68002B3ED002F096F973
:102A60000346002B39D140F20023C2F200034FF09D
:102A700000021A6040F20823C2F200034FF0FF0286
:102A80001A6040F2FC13C2F200031A6840F2F41319
:102A9000C2F200031A6002F017FC03461A4640F225
:102AA0000023C2F200031A6040F20523C2F20003C1
:102AB0004FF001021A7000F095F840F20523C2F2BF
:102AC00000034FF000021A7040F2FC13C2F2000340
:102AD0001B68184601F094FCFEE74FF47A7002F090
:102AE00021FCFAE780B500AF00F07CF84FF0000061
:102AF00000F07EF84FF0000001F082FC4FF001037F
:102B0000184680BD80B588B008AF4FF0FF304FF059
:102B1000FF3102F0CDF94FF0000002F0EDF940F284
:102B20009840C0F6010002F087F94FF001030093CE
:102B30004FF0010301934FF0010302934FF00103A3
:102B400003934FF0010304934FF0010305934FF0FB
:102B5000010306934FF0010307934FF001004FF07C
:102B600001014FF001024FF0010304F0C5FF4FF0E7
:102B7000050300934FF0060301934FF00703029300
:102B80004FF0080303934FF0090304934FF00A0337
:102B900005934FF001004FF002014FF003024FF098
:102BA000040308F001FC4FF0000300934FF0000312
:102BB00001934FF0000302934FF0000303934FF093
:102BC000000304934FF0000305934FF000004FF013
:102BD00000014FF000024FF0000308F0E9FCBD4691
:102BE00080BD00BF80B400AFBD4680BC704700BF51
:102BF00080B582B000AF786040F2B873C2F20003D3
:102C00004FF000021A6001F0EFBB4FF0060005F034
:102C100015F803461A4640F25873C2F200031A60D0
:102C200040F25873C2F200031B68002B40F074821C
:102C300001F0A8FF4FF4967002F074FB4FF0010012
:102C400004F00AFE4FF001004FF0000104F078FE9E
:102C50004FF0010004F03CFE024640F28873C2F2DD
:102C600000031A600BE002F013F84FF0010004F0CB
:102C70002FFE024640F28873C2F200031A6040F24F
:102C80008873C2F200031B68632BECDD01F03AFD90
:102C900001F078FF4FF0010004F0DEFD4FF001007D
:102CA0004FF0000104F04CFE4FF0010004F010FE64
:102CB000024640F28873C2F200031A600BE001F092
:102CC0005DFE4FF0010004F003FE024640F28873FF
:102CD000C2F200031A6040F28873C2F200031B685C
:102CE000042BECDD01F00EFD01F06CFF01F00AFD9C
:102CF0004FF0010004F0B0FD4FF001004FF0000173
:102D000004F01EFE4FF0010004F0E2FD024640F226
:102D10008873C2F200031A600BE001F02FFE4FF03F
:102D2000010004F0D5FD024640F28873C2F20003B0
:102D30001A6040F28873C2F200031B686D2BECDD51
:102D400001F0E0FC01F02EFF4FF4617002F0EAFAAE
:102D50004FF0010004F080FD4FF001004FF0000142
:102D600004F0EEFD4FF0010004F0B2FD024640F227
:102D70008873C2F200031A600BE001F01BFE4FF0F3
:102D8000010004F0A5FD024640F28873C2F2000380
:102D90001A6040F28873C2F200031B68812BECDDDD
:102DA00001F0B0FC01F0EEFE4FF0C80002F0BAFAFC
:102DB00001F0A8FC01F0F6FE4FF4967002F0B2FAB2
:102DC00001F0A0FC01F0FEFE01F09CFC4FF00100C0
:102DD00002F0A8FA01F096FC4FF0010004F03CFD6F
:102DE0004FF001004FF0000104F0AAFD4FF0010088
:102DF00004F06EFD024640F28873C2F200031A60CE
:102E00000BE001F0BBFD4FF0010004F061FD024654
:102E100040F28873C2F200031A6040F28873C2F273
:102E200000031B684A2BECDD01F06CFC01F0BAFEDC
:102E30004FF4966002F076FA4FF0010004F00CFDBA
:102E40004FF001004FF0000104F07AFD4FF0010057
:102E500004F03EFD024640F28873C2F200031A609D
:102E60000BE001F0A7FD4FF0010004F031FD024638
:102E700040F28873C2F200031A6040F28873C2F213
:102E800000031B683B2BECDD01F03CFC4FF0010024
:102E900004F0E2FC4FF001004FF0000104F050FD9F
:102EA0004FF0010004F014FD024640F28873C2F2B4
:102EB00000031A600BE001F0EBFE4FF0010004F09C
:102EC00007FD024640F28873C2F200031A6040F226
:102ED0008873C2F200031B68272BECDD01F012FCA3
:102EE00001F050FE4FF0010004F0B6FC4FF001007D
:102EF0004FF0000104F024FD4FF0010004F0E8FC65
:102F0000024640F28873C2F200031A600BE001F03F
:102F1000BFFE4FF0010004F0DBFC024640F2887374
:102F2000C2F200031A6040F28873C2F200031B6809
:102F3000542BECDD01F0E6FB01F044FE01F0E2FB76
:102F40004FF0010004F088FC4FF001004FF0000149
:102F500004F0F6FC4FF0010004F0BAFC024640F227
:102F60008873C2F200031A600BE001F007FD4FF016
:102F7000010004F0ADFC024640F28873C2F2000387
:102F80001A6040F28873C2F200031B68682BECDD04
:102F900001F0B8FB01F00EFD4FF0140002F0C2F991
:102FA00001F0B0FB01F0FEFD40F2DA2002F0BAF9C8
:102FB0004FF0010004F050FC4FF001004FF0000111
:102FC00004F0BEFC4FF0010004F082FC024640F227
:102FD0008873C2F200031A600BE001F0EBFC4FF0C3
:102FE000010004F075FC024640F28873C2F200034F
:102FF0001A6040F28873C2F200031B68DB2BECDD21
:1030000001F080FB01F0BEFD4FF0010004F024FC54
:103010004FF001004FF0000104F092FC4FF001006E
:1030200004F056FC024640F28873C2F200031A60B4
:103030000BE001F0F7FC4FF0010004F049FC024600
:1030400040F28873C2F200031A6040F28873C2F241
:1030500000031B68632BECDD01F054FB01F092FDD3
:103060004FF0010004F0F8FB4FF001004FF00001B9
:1030700004F066FC4FF0010004F02AFC024640F226
:103080008873C2F200031A600BE001F093FC4FF06A
:10309000010004F01DFC024640F28873C2F20003F6
:1030A0001A6040F28873C2F200031B68272BECDD24
:1030B00001F028FB01F00AFD4FF4C86002F032F97C
:1030C00001F020FB01F076FC01F05CFB01F01AFB43
:1030D0004FF0640002F026F901F014FB01F06AFCE5
:1030E00001F0D8FC4FF0640002F01CF901F00AFB7B
:1030F00001F0C6FB01F006FB4CF2503002F012F971
:1031000040F2B873C2F200031B6803F1010240F2FF
:10311000B873C2F200031A604FF0070004F08EFD8E
:1031200003461A4640F27C73C2F200031A6040F272
:103130007C73C2F200031B68002B40F0758101F024
:1031400021FD4FF4967002F0EDF84FF0010004F00D
:1031500083FB4FF001004FF0000104F0F1FB4FF052
:10316000010004F0B5FB024640F28873C2F200038E
:103170001A600BE001F08CFD4FF0010004F0A8FB99
:10318000024640F28873C2F200031A6040F288736C
:10319000C2F200031B68632BECDD01F0B3FA01F00F
:1031A000F1FC4FF0010004F057FB4FF001004FF02D
:1031B000000104F0C5FB4FF0010004F089FB02465A
:1031C00040F28873C2F200031A600BE001F0D6FBF4
:1031D0004FF0010004F07CFB024640F28873C2F21B
:1031E00000031A6040F28873C2F200031B68042BCC
:1031F000ECDD01F087FA01F0E5FC01F083FA4FF015
:10320000010004F029FB4FF001004FF0000104F031
:1032100097FB4FF0010004F05BFB024640F288731D
:10322000C2F200031A600BE001F0A8FB4FF00100AE
:1032300004F04EFB024640F28873C2F200031A60AB
:1032400040F28873C2F200031B687C2BECDD01F0B6
:1032500059FA01F0A7FC4FF42F7002F063F84FF019
:10326000010004F0F9FA4FF001004FF0000104F002
:1032700067FB4FF0010004F02BFB024640F288731D
:10328000C2F200031A600BE001F0CCFB4FF001002A
:1032900004F01EFB024640F28873C2F200031A607B
:1032A00040F28873C2F200031B68B3F5A77FEBDD21
:1032B00001F028FA01F008FD4FF0E60002F032F8C4
:1032C00001F020FA01F05EFC4FF0E60002F02AF86F
:1032D0004FF0010004F0C0FA4FF001004FF0000180
:1032E00004F02EFB4FF0010004F0F2FA024640F227
:1032F0008873C2F200031A600BE001F05BFB4FF031
:10330000010004F0E5FA024640F28873C2F20003BD
:103310001A6040F28873C2F200031B68452BECDD93
:1033200001F0F0F901F0D2FB4FF4A06001F0FAFFD8
:1033300001F0E8F901F03EFB01F024FA01F0E2F9B6
:1033400001F038FB01F01EFC01F0A4FB4FF032004D
:1033500001F0E8FF01F0D6F901F014FC01F09AFB4E
:103360004FF0B40001F0DEFF01F0CCF901F006FBF4
:103370004FF0E60001F0D6FF01F0C4F901F022FCA5
:1033800001F0C0F94FF0010004F066FA4FF00100BF
:103390004FF0000104F0D4FA4FF0010004F098FA65
:1033A000024640F28873C2F200031A600BE001F09B
:1033B0006FFC4FF0010004F08BFA024640F2887374
:1033C000C2F200031A6040F28873C2F200031B6865
:1033D000F92BECDD01F096F901F0ECFA4FF4C8702E
:1033E00001F0A0FF01F08EF901F070FB40F21450E3
:1033F00001F098FF01F086F901F0D4FB4FF0C8000E
:1034000001F090FF01F0D6FA01F0BCF901F07AF971
:1034100040F2B873C2F200031B6803F1020240F2EB
:10342000B873C2F200031A604FF0080004F006FC03
:1034300003461A4640F23073C2F200031A6040F2AB
:103440003073C2F200031B68002B40F0A08101F032
:1034500099FB4FF4967001F065FF4FF0010004F006
:10346000FBF94FF001004FF0000104F069FA4FF052
:10347000010004F02DFA024640F28873C2F2000304
:103480001A600BE001F020FC4FF0010004F020FA7C
:10349000024640F28873C2F200031A6040F2887359
:1034A000C2F200031B68632BECDD01F02BF901F085
:1034B00069FB4FF0010004F0CFF94FF001004FF02D
:1034C000000104F03DFA4FF0010004F001FA024659
:1034D00040F28873C2F200031A600BE001F04EFA6A
:1034E0004FF0010004F0F4F9024640F28873C2F292
:1034F00000031A6040F28873C2F200031B68042BB9
:10350000ECDD01F0FFF801F05DFB01F0FBF84FF09E
:10351000010004F0A1F94FF001004FF0000104F0A8
:103520000FFA4FF0010004F0D3F9024640F288731D
:10353000C2F200031A600BE001F020FA4FF0010024
:1035400004F0C6F9024640F28873C2F200031A6022
:1035500040F28873C2F200031B687C2BECDD01F0A3
:10356000D1F801F01FFB4FF42F7001F0DBFE4FF09C
:10357000010004F071F94FF001004FF0000104F078
:10358000DFF94FF0010004F0A3F9024640F288731E
:10359000C2F200031A600BE001F028FA4FF00100BC
:1035A00004F096F9024640F28873C2F200031A60F2
:1035B00040F28873C2F200031B68A92BECDD01F016
:1035C000A1F801F0DBF94FF42F7001F0ABFE01F030
:1035D00099F801F0D7FA4FF0E60001F0A3FE01F0F0
:1035E00091F84FF0010004F037F94FF001004FF06F
:1035F000000104F0A5F94FF0010004F069F902465A
:1036000040F28873C2F200031A600BE001F0EEF999
:103610004FF0010004F05CF9024640F28873C2F2F8
:1036200000031A6040F28873C2F200031B68A92BE2
:10363000ECDD01F067F84FF0010004F00DF94FF0F8
:1036400001004FF0000104F07BF94FF0010004F09D
:103650003FF9024640F28873C2F200031A600BE0A1
:1036600001F0A8F94FF0010004F032F9024640F2EF
:103670008873C2F200031A6040F28873C2F200033A
:103680001B68312BECDD01F03DF801F01FFA4FF41F
:10369000A06001F047FE01F035F801F08BF901F070
:1036A00071F801F02FF801F085F901F06BFA01F0E3
:1036B000F1F94FF0320001F035FE01F023F801F08E
:1036C00061FA01F0E7F94FF0640001F02BFE01F020
:1036D00019F801F053F94FF0E60001F023FE01F074
:1036E00011F801F06FFA01F00DF84FF0010004F04D
:1036F000B3F84FF001004FF0000104F021F94FF052
:10370000010004F0E5F8024640F28873C2F20003BB
:103710001A600BE001F0BCFA4FF0010004F0D8F899
:10372000024640F28873C2F200031A6040F28873C6
:10373000C2F200031B68F92BECDD00F0E3FF01F09F
:1037400039F94FF4C87001F0EDFD00F0DBFF01F036
:10375000BDF94FF4167001F0E5FD00F0D3FF01F064
:1037600021FA4FF0C80001F0DDFD01F023F901F06E
:1037700009F800F0C7FF40F2B873C2F200031B68FB
:1037800003F1030240F2B873C2F200031A604FF073
:10379000090004F053FA03461A4640F28C73C2F251
:1037A00000031A6040F28C73C2F200031B68002B06
:1037B00040F0088201F006FA00F0A4FF4FF001008B
:1037C00004F04AF84FF001004FF0000104F0B8F89F
:1037D0004FF0010004F07CF8024640F28873C2F218
:1037E00000031A600BE001F0C9F84FF0010004F08B
:1037F0006FF8024640F28873C2F200031A6040F28A
:103800008873C2F200031B686D2BECDD00F07AFFB9
:1038100001F0C8F94FF0640001F084FD4FF00100A1
:1038200004F01AF84FF001004FF0000104F088F89E
:103830004FF0010004F04CF8024640F28873C2F2E7
:1038400000031A600BE001F0B5F84FF0010004F03E
:103850003FF8024640F28873C2F200031A6040F259
:103860008873C2F200031B68182BECDD00F04AFFDE
:1038700001F098F94FF4FA7001F054FD4FF0010097
:1038800003F0EAFF4FF001004FF0000104F058F898
:103890004FF0010004F01CF8024640F28873C2F2B7
:1038A00000031A600BE001F00FFA4FF0010004F082
:1038B0000FF8024640F28873C2F200031A6040F229
:1038C0008873C2F200031B68952BECDD00F01AFF31
:1038D00001F078F900F016FF4FF0010003F0BCFF93
:1038E0004FF001004FF0000104F02AF84FF0010002
:1038F00003F0EEFF024640F28873C2F200031A6042
:103900000BE001F03BF84FF0010003F0E1FF02464D
:1039100040F28873C2F200031A6040F28873C2F268
:1039200000031B684A2BECDD00F0ECFE4FF01E009C
:1039300001F0F8FC00F0E6FE01F034F94FF0010070
:1039400003F08AFF4FF001004FF0000103F0F8FF91
:103950004FF0010003F0BCFF024640F28873C2F250
:1039600000031A600BE001F025F84FF0010003F0AE
:10397000AFFF024640F28873C2F200031A6040F2C1
:103980008873C2F200031B68272BECDD00F0BAFE3F
:1039900001F008F940F2262001F0C4FC4FF00100CC
:1039A00003F05AFF4FF001004FF0000103F0C8FF91
:1039B0004FF0010003F08CFF024640F28873C2F220
:1039C00000031A600BE001F07FF94FF0010003F0F3
:1039D0007FFF024640F28873C2F200031A6040F291
:1039E0008873C2F200031B68952BECDD00F08AFEA1
:1039F00001F0E8F800F086FE4FF0010003F02CFF24
:103A00004FF001004FF0000103F09AFF4FF001006A
:103A100003F05EFF024640F28873C2F200031A60B0
:103A20000BE000F0ABFF4FF0010003F051FF024646
:103A300040F28873C2F200031A6040F28873C2F247
:103A400000031B684F2BECDD00F05CFE01F0AAF8D0
:103A500040F2523001F066FC4FF0010003F0FCFE32
:103A60004FF001004FF0000103F06AFF4FF001003A
:103A700003F02EFF024640F28873C2F200031A6080
:103A80000BE000F097FF4FF0010003F021FF02462A
:103A900040F28873C2F200031A6040F28873C2F2E7
:103AA00000031B68042BECDD00F02CFE01F07AF81B
:103AB0004FF4E17001F036FC4FF0010003F0CCFE52
:103AC0004FF001004FF0000103F03AFF4FF001000A
:103AD00003F0FEFE024640F28873C2F200031A6051
:103AE0000BE000F083FF4FF0010003F0F1FE02460F
:103AF00040F28873C2F200031A6040F28873C2F287
:103B000000031B68952BECDD00F0FCFD01F03AF89A
:103B10004FF4487001F006FC4FF0010003F09CFEEA
:103B20004FF001004FF0000103F00AFF4FF00100D9
:103B300003F0CEFE024640F28873C2F200031A6020
:103B40000BE000F037FF4FF0010003F0C1FE02462A
:103B500040F28873C2F200031A6040F28873C2F226
:103B600000031B68222BECDD00F0CCFD00F0AEFF63
:103B70004FF4966001F0D6FB00F0C4FD00F01AFF90
:103B800000F000FE00F0BEFD00F0BCFD00F012FFF2
:103B90004FF0FA0001F0C6FB00F0B4FD00F070FE3B
:103BA00000F0B0FD4CF2503001F0BCFB40F2B873B5
:103BB000C2F200031B6803F1040240F2B873C2F2C0
:103BC00000031A604FF00A0004F038F803461A4662
:103BD00040F25C73C2F200031A6040F25C73C2F2FE
:103BE00000031B68002B40F0C68100F0CBFF4FF4B0
:103BF0002F7001F097FB4FF0010003F02DFE4FF006
:103C000001004FF0000103F09BFE4FF0010003F0B4
:103C10005FFE024640F28873C2F200031A600BE0B6
:103C200000F0ACFE4FF0010003F052FE024640F2FD
:103C30008873C2F200031A6040F28873C2F2000374
:103C40001B684F2BECDD00F05DFD00F0BBFF00F0CA
:103C500059FD00F093FE4FF42F7001F063FB00F06C
:103C600051FD00F09FFF4FF4487001F05BFB4FF0F7
:103C7000010003F0F1FD4FF001004FF0000103F0EF
:103C80005FFE4FF0010003F023FE024640F288730E
:103C9000C2F200031A600BE000F08CFE4FF001004E
:103CA00003F016FE024640F28873C2F200031A6067
:103CB00040F28873C2F200031B68772BECDD00F042
:103CC00021FD4FF0010003F0C7FD4FF001004FF060
:103CD000000103F035FE4FF0010003F0F9FD02464C
:103CE00040F28873C2F200031A600BE000F07EFE1F
:103CF0004FF0010003F0ECFD024640F28873C2F27F
:103D000000031A6040F28873C2F200031A6840F29E
:103D10005D139A42EADD00F0F5FC4FF4C87001F043
:103D200001FB00F0EFFC4FF0010003F095FD4FF0B8
:103D300001004FF0000103F003FE4FF0010003F01B
:103D4000C7FD024640F28873C2F200031A600BE01E
:103D500000F030FE4FF0010003F0BAFD024640F2E1
:103D60008873C2F200031A6040F28873C2F2000343
:103D70001B68312BECDD00F0C5FC00F003FF4FF0B9
:103D8000010003F069FD4FF001004FF0000103F066
:103D9000D7FD4FF0010003F09BFD024640F288730F
:103DA000C2F200031A600BE000F072FF4FF0010056
:103DB00003F08EFD024640F28873C2F200031A60DF
:103DC00040F28873C2F200031B686D2BECDD00F03B
:103DD00099FC00F0F7FE00F095FC4FF0010003F0B5
:103DE0003BFD4FF001004FF0000103F0A9FD4FF043
:103DF000010003F06DFD024640F28873C2F2000339
:103E00001A600BE000F0BAFD4FF0010003F060FD16
:103E1000024640F28873C2F200031A6040F28873CF
:103E2000C2F200031B684F2BECDD00F06BFC4FF07F
:103E3000010003F011FD4FF001004FF0000103F00D
:103E40007FFD4FF0010003F043FD024640F288730E
:103E5000C2F200031A600BE000F0ACFD4FF001006D
:103E600003F036FD024640F28873C2F200031A6086
:103E700040F28873C2F200031B68012BECDD00F0F6
:103E800041FC00F08FFE4FF4FA7001F04BFA00F0A5
:103E900039FC00F087FE4FF4C87001F043FA4FF090
:103EA000010003F0D9FC4FF001004FF0000103F0D6
:103EB00047FD4FF0010003F00BFD024640F288730E
:103EC000C2F200031A600BE000F074FD4FF0010035
:103ED00003F0FEFC024640F28873C2F200031A604F
:103EE00040F28873C2F200031B684F2BECDD00F038
:103EF00009FC00F047FE4FF0010003F0ADFC4FF06D
:103F000001004FF0000103F01BFD4FF0010003F032
:103F1000DFFC024640F28873C2F200031A600BE035
:103F200000F064FD4FF0010003F0D2FC024640F2C5
:103F30008873C2F200031A6040F28873C2F2000371
:103F40001B68B32BECDD00F0DDFB00F01BFC00F088
:103F5000D9FB4CF2503001F0E5F900F0D3FB40F210
:103F6000B873C2F200031B6803F1050240F2B87394
:103F7000C2F200031A604FF00B0003F05FFE03462D
:103F80001A4640F2C873C2F200031A6040F2C873C6
:103F9000C2F200031B68002B40F0268200F0F2FD05
:103FA0004FF0010003F058FC4FF001004FF000010A
:103FB00003F0C6FC4FF0010003F08AFC024640F219
:103FC0008873C2F200031A600BE000F07DFE4FF030
:103FD000010003F07DFC024640F28873C2F2000348
:103FE0001A6040F28873C2F200031B68772BECDD85
:103FF00000F088FB00F0E6FD00F084FB4FF00100CC
:1040000003F02AFC4FF001004FF0000103F098FC90
:104010004FF0010003F05CFC024640F28873C2F2EC
:1040200000031A600BE000F0A9FC4FF0010003F060
:104030004FFC024640F28873C2F200031A6040F25D
:104040008873C2F200031B68772BECDD00F05AFB8B
:1040500000F0A8FD40F2B63001F064F94FF0010025
:1040600003F0FAFB4FF001004FF0000103F068FC91
:104070004FF0010003F02CFC024640F28873C2F2BC
:1040800000031A600BE000F095FC4FF0010003F014
:104090001FFC024640F28873C2F200031A6040F22D
:1040A0008873C2F200031B68812BECDD00F02AFB51
:1040B00000F068FD4FF0C80001F034F900F022FB79
:1040C00000F070FD4FF4C87001F02CF900F01AFBFD
:1040D00000F078FD00F016FB4FF0010001F022F92E
:1040E00000F010FB4FF0010003F0B6FB4FF00100B1
:1040F0004FF0000103F024FC4FF0010003F0E8FB57
:10410000024640F28873C2F200031A600BE000F02E
:1041100035FC4FF0010003F0DBFB024640F28873F0
:10412000C2F200031A6040F28873C2F200031B68F7
:10413000452BECDD00F0E6FA00F034FD40F24C4097
:1041400001F0F0F84FF0010003F086FB4FF00100A2
:104150004FF0000103F0F4FB4FF0010003F0B8FB57
:10416000024640F28873C2F200031A600BE000F0CE
:1041700021FC4FF0010003F0ABFB024640F28873D4
:10418000C2F200031A6040F28873C2F200031B6897
:104190002C2BECDD00F0B6FA4FF0010003F05CFBD5
:1041A0004FF001004FF0000103F0CAFB4FF0010097
:1041B00003F08EFB024640F28873C2F200031A60DD
:1041C0000BE000F081FD4FF0010003F081FB02469F
:1041D00040F28873C2F200031A6040F28873C2F2A0
:1041E00000031B68452BECDD00F08CFA00F0CAFCE4
:1041F0004FF0010003F030FB4FF001004FF00001E1
:1042000003F09EFB4FF0010003F062FB024640F218
:104210008873C2F200031A600BE000F055FD4FF006
:10422000010003F055FB024640F28873C2F200031E
:104230001A6040F28873C2F200031B686D2BECDD3C
:1042400000F060FA00F0BEFC00F05CFA4FF00100F4
:1042500003F002FB4FF001004FF0000103F070FB90
:104260004FF0010003F034FB024640F28873C2F2C3
:1042700000031A600BE000F081FB4FF0010003F037
:1042800027FB024640F28873C2F200031A6040F234
:104290008873C2F200031B68452BECDD00F032FA94
:1042A00000F080FC4FF4877001F03CF800F02AFA2F
:1042B00000F078FC00F07EFB4FF0460001F032F891
:1042C00000F020FA00F06EFC40F2B63001F02AF85F
:1042D0004FF0010003F0C0FA4FF001004FF0000171
:1042E00003F02EFB4FF0010003F0F2FA024640F219
:1042F0008873C2F200031A600BE000F077FB4FF006
:10430000010003F0E5FA024640F28873C2F20003AE
:104310001A6040F28873C2F200031B68A92BECDD1F
:1043200000F0F0F900F02EFC4FF4167000F0FAFFE8
:104330004FF0010003F090FA4FF001004FF0000140
:1043400003F0FEFA4FF0010003F0C2FA024640F219
:104350008873C2F200031A600BE000F02BFB4FF0F1
:10436000010003F0B5FA024640F28873C2F200037E
:104370001A6040F28873C2F200031B68422BECDD26
:1043800000F0C0F900F0A2FB40F2145000F0CAFFA8
:1043900000F0B8F900F00EFB00F098FB4FF0C800F9
:1043A00000F0C0FF00F0AEF900F0ECF900F0AAF95F
:1043B00000F000FB4FF0640000F0B4FF00F0A2F941
:1043C00000F05EFA00F09EF94CF2503000F0AAFFC7
:1043D00040F2B873C2F200031B6803F1020240F21C
:1043E000B873C2F200031A6040F2B873C2F200035D
:1043F0001B68002B3EF409AC07F10807BD4680BDE1
:1044000080B58AB008AF786002E000BF00E000BF6E
:104410004FF0020300934FF0090301934FF00103A3
:1044200002934FF00A0303934FF0010304934FF0FC
:10443000010305934FF0000306934FF00003079329
:104440004FF001004FF003014FF004024FF0010361
:1044500004F058FC4FF001004FF005014FF002024C
:1044600004F004FE03461A4640F26873C2F20003E9
:104470001A604FF0020003F0E1FB03461A4640F2D7
:104480009073C2F200031A604FF0030003F0D6FBF2
:1044900003461A4640F2C473C2F200031A6040F2A7
:1044A000C473C2F200031B68012B0FD140F290735A
:1044B000C2F200031B68012B08D140F26873C2F2FC
:1044C00000031B68002B01D100F0C8FA4FF0010077
:1044D0004FF005014FF0010204F0C8FD03461A46F3
:1044E00040F24473C2F200031A604FF0030003F07D
:1044F000A5FB03461A4640F2C473C2F200031A60D9
:1045000040F24473C2F200031B68012B08D140F251
:10451000C473C2F200031B68012B01D100F0BAF88A
:104520004FF001004FF005014FF0020204F09EFD34
:1045300003461A4640F26873C2F200031A604FF055
:10454000020003F07BFB03461A4640F29073C2F26E
:1045500000031A6040F26873C2F200031B68012B6B
:1045600008D140F29073C2F200031B68012B01D105
:1045700000F058F84FF001004FF006014FF0010233
:1045800004F074FD03461A4640F23473C2F200038D
:104590001A604FF00A0003F051FB03461A4640F23E
:1045A0007073C2F200031A6040F23473C2F2000367
:1045B0001B68012B08D140F29873C2F200031B68FC
:1045C000012B01D100F0BEFA4FF001004FF00601BF
:1045D0004FF0020204F04AFD03461A4640F2B4735B
:1045E000C2F200031A604FF0050003F027FB0346F8
:1045F0001A4640F29873C2F200031A6040F2B47394
:10460000C2F200031B68012B7FF4FFAE40F270730F
:10461000C2F200031B68012B7FF4F9AE00F072FABE
:10462000F6E600BF80B500AF4FF003004FF07F010A
:1046300004F004FA4FF004004FF07F0104F0FEF99B
:104640004FF005006FF07E0104F0F8F94FF006001E
:104650006FF07E0104F0F2F94FF0010000F062FE0D
:104660004FF003004FF0000104F0E8F94FF00400B0
:104670004FF0000104F0E2F94FF005004FF00001A7
:1046800004F0DCF94FF006004FF0000104F0D6F919
:1046900080BD00BF80B500AF4FF003006FF07E011A
:1046A00004F0CCF94FF004006FF07E0104F0C6F97D
:1046B0004FF005004FF07F0104F0C0F94FF0060005
:1046C0004FF07F0104F0BAF94FF0010000F02AFE2C
:1046D0004FF003004FF0000104F0B0F94FF0040078
:1046E0004FF0000104F0AAF94FF005004FF000016F
:1046F00004F0A4F94FF006004FF0000104F09EF919
:1047000080BD00BF80B500AF4FF001004FF0000149
:1047100004F094F94FF002004FF0000104F08EF91C
:104720004FF003004FF0000104F088F94FF004004F
:104730004FF0000104F082F94FF005004FF0000146
:1047400004F07CF94FF006004FF0000104F076F918
:104750004FF007004FF0000104F070F94FF008002F
:104760004FF0000104F06AF94FF009004FF000012A
:1047700004F064F94FF00A004FF0000104F05EF914
:1047800080BD00BF80B500AF4FF0010000F016FE05
:104790004FF001004FF0000100F044FE4FF0010027
:1047A00000F05CFE03461A4640F27873C2F2000342
:1047B0001A604FF0030003F041FA03461A4640F234
:1047C000C473C2F200031A602DE04FF003006FF0D3
:1047D0007E0104F033F94FF004006FF07E0104F025
:1047E0002DF94FF005004FF07F0104F027F94FF04D
:1047F00006004FF07F0104F021F94FF0010000F0B6
:104800002DFE03461A4640F27873C2F200031A6086
:104810004FF0030003F012FA03461A4640F2C47345
:10482000C2F200031A6040F2C473C2F200031B68B4
:10483000012B08D140F27873C2F200031A6840F6E7
:10484000B7339A42C1DD4FF003004FF0000104F08E
:10485000F5F84FF004004FF0000104F0EFF84FF0CE
:1048600005004FF0000104F0E9F84FF006004FF0AA
:10487000000104F0E3F84FF0010000F0B9FD80BD45
:1048800080B500AF4FF0020000F098FD4FF002003D
:104890004FF0000100F0C6FD4FF0020000F0DEFD19
:1048A00003461A4640F2A473C2F200031A604FF0A6
:1048B000020003F0C3F903461A4640F29073C2F2B5
:1048C00000031A602DE04FF003004FF07F0104F069
:1048D000B5F84FF004004FF07F0104F0AFF84FF04F
:1048E00005006FF07E0104F0A9F84FF006006FF0AC
:1048F0007E0104F0A3F84FF0020000F0AFFD034684
:104900001A4640F2A473C2F200031A604FF002008C
:1049100003F094F903461A4640F29073C2F2000382
:104920001A6040F29073C2F200031B68012B08D199
:1049300040F2A473C2F200031A6840F6B7339A42F9
:10494000C1DD4FF003004FF0000104F077F84FF0A5
:1049500004004FF0000104F071F84FF005004FF033
:10496000000104F06BF84FF006004FF0000104F076
:1049700065F84FF0020000F03BFD80BD80B500AF50
:104980004FF001006FF07E0104F058F84FF0020084
:104990004FF07F0104F052F84FF009006FF07E01F4
:1049A00004F04CF84FF00A004FF07F0104F046F895
:1049B00080BD00BF80B500AF4FF001004FF07F0118
:1049C00004F03CF84FF002006FF07E0104F036F87E
:1049D0004FF009004FF07F0104F030F84FF00A006B
:1049E0006FF07E0104F02AF880BD00BF80B500AFF3
:1049F0004FF001004FF07F0104F020F84FF002006B
:104A00006FF07E0104F01AF84FF009006FF07E019C
:104A100004F014F84FF00A004FF07F0104F00EF894
:104A200080BD00BF80B500AF4FF001006FF07E0188
:104A300004F004F84FF002004FF07F0103F0FEFF96
:104A40004FF009004FF07F0103F0F8FF4FF00A002C
:104A50006FF07E0103F0F2FF80BD00BF80B500AFB4
:104A60004FF003006FF0060103F0E8FF4FF0040081
:104A70006FF0060103F0E2FF4FF005004FF0070171
:104A800003F0DCFF4FF006004FF0070103F0D6FF04
:104A900080BD00BF80B500AF4FF003004FF07F0135
:104AA00003F0CCFF4FF004004FF07F0103F0C6FF8E
:104AB0004FF005006FF07E0103F0C0FF4FF00600DD
:104AC0006FF07E0103F0BAFF80BD00BF80B500AF7C
:104AD0004FF003006FF07E0103F0B0FF4FF00400D1
:104AE0006FF07E0103F0AAFF4FF005004FF07F0149
:104AF00003F0A4FF4FF006004FF07F0103F09EFF8C
:104B000080BD00BF80B500AF4FF007004FF07F01C0
:104B100003F094FF4FF008006FF07E0103F08EFF6A
:104B20004FF0010000F0FEFB4FF007004FF00001D6
:104B300003F084FF4FF008004FF0000103F07EFF08
:104B400080BD00BF80B500AF4FF007006FF07E0161
:104B500003F074FF4FF008004FF07F0103F06EFF89
:104B60004FF0010000F0DEFB4FF007004FF00001B6
:104B700003F064FF4FF008004FF0000103F05EFF08
:104B800080BD00BF80B500AF4FF007004FF07F0140
:104B900003F054FF4FF008006FF07E0103F04EFF6A
:104BA00080BD00BF80B500AF4FF007006FF07E0101
:104BB00003F044FF4FF008004FF07F0103F03EFF89
:104BC00080BD00BF80B500AF4FF0010000F0F6FBE4
:104BD0004FF001004FF0000100F024FC4FF0010005
:104BE00000F03CFC03461A4640F27873C2F2000320
:104BF0001A604FF00A0003F021F803461A4640F20B
:104C00007073C2F200031A6021E04FF007004FF00A
:104C10007F0103F013FF4FF008006FF07E0103F0F7
:104C20000DFF4FF0010000F019FC03461A4640F258
:104C30007873C2F200031A604FF00A0002F0FEFF20
:104C400003461A4640F27073C2F200031A6040F243
:104C50007073C2F200031B68012B08D140F2787315
:104C6000C2F200031A6840F2CF739A42CDDD4FF0D2
:104C700007004FF0000103F0E1FE4FF008004FF095
:104C8000000103F0DBFE4FF0010000F0B1FB80BD3E
:104C900080B500AF4FF001006FF07E0103F0CEFE53
:104CA0004FF002006FF07E0103F0C8FE4FF00900E4
:104CB0006FF07E0103F0C2FE4FF00A006FF07E013C
:104CC00003F0BCFE80BD00BF80B500AF4FF0010017
:104CD0004FF07F0103F0B2FE4FF002004FF07F0172
:104CE00003F0ACFE4FF009004FF07F0103F0A6FE89
:104CF0004FF00A004FF07F0103F0A0FE80BD00BF1F
:104D000080B582B000AF02460B46FA807B71FA880C
:104D10007B794FF4E050C4F2010011461A4607F0C7
:104D200079FB07F10807BD4680BD00BF80B582B0A2
:104D300000AF0346FB80FB884FF4E050C4F2010053
:104D4000194607F02BFB0346184607F10807BD4636
:104D500080BD00BF80B582B000AF0346FB7103F099
:104D6000C5F9FB79012B02D0FB79022B01D100F0B0
:104D7000B7F94FF010004FF00101FFF7C1FF4FF0FE
:104D8000010080F3108807F01BFFFEE780B500AF3D
:104D900040F2F413C2F200031B68002B0ADD4FF04F
:104DA0000100FFF7C3FF0346002B14BF00230123BC
:104DB000DBB209E04FF00100FFF7B8FF0346002B1C
:104DC0000CBF00230123DBB2184680BD80B500AFC5
:104DD0004FF00200FFF7AAFF0346002B14BF002389
:104DE0000123DBB2184680BD80B400AF40F2F4135B
:104DF000C2F200031B68002B17DB40F2FC13C2F267
:104E000000031B68002B10DB40F2F413C2F2000316
:104E10001B68002B06DC40F2FC13C2F200031B6887
:104E2000002B02DD4FF0010301E04FF000031846B4
:104E3000BD4680BC704700BF80B584B000AF7860CD
:104E40004FF00003FB600CE040F20003C2F20003ED
:104E5000FA689B184FF020021A70FB6803F10103F7
:104E6000FB60FB68072BEFDD7868FBF7C7FA0346AA
:104E7000BB60BB68082B17DC4FF00003FB600FE042
:104E8000FB687A68D3181B78DAB240F20003C2F2EA
:104E90000003F9685B181A70FB6803F10103FB60FB
:104EA000FA68BB689A42EBDB07F11007BD4680BD8C
:104EB00080B483B000AF786039607B68B3F1FF3FA6
:104EC00003D03B68B3F1FF3F05D14FF0FF337B6068
:104ED0004FF0FF333B6040F2F413C2F200037A68F4
:104EE0001A6040F2FC13C2F200033A681A6007F13C
:104EF0000C07BD4680BC704780B483B000AF03464A
:104F0000FB7140F2F813C2F20003FA791A7007F14C
:104F10000C07BD4680BC704780B500AF40F2F4136B
:104F2000C2F200031B68002B21DD00F0DDF9024610
:104F300040F2F413C2F200031B689A4217D9FFF73C
:104F400025FF0346002B06D04FF001004FF0010172
:104F5000FFF7D6FE0BE04FF001004FF00001FFF726
:104F6000CFFE4FF002004FF00101FFF7C9FE4FF0F6
:104F70000103184680BD00BF80B500AF4FF00400AC
:104F8000FFF7D4FE0346002B0CBF00230123DBB246
:104F9000184680BD80B582B000AF02460B46FA715C
:104FA000BB71FB79002B11D04FF004004FF00101D1
:104FB000FFF7A6FEBB79C82B14BF00230123DBB289
:104FC0004FF020001946FFF79BFE05E04FF004006C
:104FD0004FF00001FFF794FE4FF00400FFF7BAFE18
:104FE00007F10807BD4680BD80B483B000AF4FF421
:104FF0007843C0F605033B6040F21023C2F2000381
:105000004FF000021A604FF000037B602FE07A68D7
:105010004FF4FC43C0F20123D3184FEA83033B60F3
:105020003B681B68B3F1FF3F12D07B6803F10102BC
:105030003B68196840F21023C2F2000343F82210C3
:1050400040F26523C2F200034FF001021A700AE039
:105050007B6803F1010240F21023C2F200034FF01B
:10506000000143F822107B6803F101037B607B6839
:10507000132BCCDD4FF00003184607F10C07BD469B
:1050800080BC704780B485B000AF0346FB714FF021
:105090000003FB7319E0FA7B40F60863C2F20003D9
:1050A0004FEA82129B189B78FA799A4209D1FA7BCF
:1050B00040F60863C2F200034FEA82129B185B7845
:1050C00008E0FB7B03F10103FB73FB7B092BE2D9B7
:1050D0004FF00003184607F11407BD4680BC704727
:1050E00080B584B000AF4FF00003BB734FF00003F6
:1050F000FB7312E0FB7B03F1010240F21023C2F2CA
:10510000000353F82230002B03D04FF00103BB7390
:1051100006E0FB7B03F10103FB73FB7B132BE9D957
:105120004FF000037B734FF00003FB7319E0FA7B31
:1051300040F68C53C2F2000353F832301A46F97B22
:1051400040F6DC53C2F2000353F82130D318002B91
:1051500003D04FF001037B7306E0FB7B03F10103F7
:10516000FB73FB7B092BE2D940F26623C2F20003FA
:105170001B78002B05D07B7B002B02D04FF0010366
:1051800001E04FF00003DAB240F26623C2F20003FE
:105190001A7040F26523C2F200031B78002B0CD179
:1051A000BB7B002B09D140F26623C2F200031B78BF
:1051B000002B02D14FF0FF0380E04FF47843C0F69C
:1051C00005037B6006F08AFE4FF0350006F060FFB5
:1051D0004FF47840C0F6050006F0AAFE0346FB70C7
:1051E00040F26523C2F200031B78002B02D1BB7B87
:1051F000002B22D04FF00003FB731BE0FA7B4FF42F
:10520000FC43C0F20123D3184FEA83037B60FB7B8E
:1052100003F1010240F21023C2F2000353F82230DE
:105220007868194606F0D0FE0346FB70FB7B03F15D
:105230000103FB73FB7B132BE0D940F26623C2F220
:1052400000031B78002B35D04FF00003FB732EE0DA
:10525000FA7B47F61463C0F20123D3184FEA8303A5
:105260007B60FA7B40F68C53C2F2000353F8323075
:10527000BB60FB7B1846FFF705FF0346022B03D1FB
:10528000BB68C3F10003BB60FA7B40F6DC53C2F29B
:10529000000353F82220BB68D3187868194606F03B
:1052A00093FE0346FB70FB7B03F10103FB73FB7B67
:1052B000092BCDD906F02AFE4FF00003184607F15E
:1052C0001007BD4680BD00BF80B483B000AF40F280
:1052D0007823C2F200031B687B607B68184607F1E5
:1052E0000C07BD4680BC704780B483B000AF40F26D
:1052F0007823C2F200031B687B6040F20023C2F2F5
:1053000000031B687A68D21A44F6D353C1F26203D1
:10531000A3FB02134FEA9313184607F10C07BD468F
:1053200080BC704780B483B000AF78607B68002B8E
:105330001FDD7B6803F00703002B03D17B6803F1BB
:1053400001037B607A6840F27023C2F200031A60A6
:1053500040F27423C2F200034FF001021A7000BF42
:1053600040F27423C2F200031B78DBB2002BF7D1AA
:1053700000E000BF07F10C07BD4680BC704700BFCE
:1053800080B582B000AF0346FB71FB79002B02D0E1
:10539000FB79062B0AD9FB7940F2A440C0F6010044
:1053A000194603F0D3FF4FF0000301E04FF0010373
:1053B000184607F10807BD4680BD00BF80B582B022
:1053C00000AF0346FB71FB791846FFF7D9FF034690
:1053D000002B08D0FA7940F29823C2F200034FF074
:1053E0000101995400E000BF07F10807BD4680BDE8
:1053F00080B582B000AF0346FB71FB791846FFF71A
:10540000BFFF0346002B08D0FA7940F29823C2F27E
:1054100000034FF00001995400E000BF07F10807B6
:10542000BD4680BD80B582B000AF03463960FB71D8
:10543000FB791846FFF7A4FF0346002B08D0FA7942
:1054400040F27C23C2F20003396843F8221000E0E6
:1054500000BF07F10807BD4680BD00BF80B584B01E
:1054600000AF0346FB71FB791846FFF789FF03463F
:10547000002B02D14FF0000308E0FA7940F27C23C0
:10548000C2F2000353F82230FB60FB68184607F1B4
:105490001007BD4680BD00BF80B582B000AF40F2AE
:1054A0007823C2F200031B6803F1010240F2782363
:1054B000C2F200031A6040F27423C2F200031B78A8
:1054C000DBB2002B19D040F27023C2F200031B683C
:1054D00003F1FF3240F27023C2F200031A6040F27F
:1054E0007023C2F200031B68002B06D140F2742324
:1054F000C2F200034FF000021A7004F04FFC786013
:105500007B68002B04DB7B68DBB2184604F0C2FC2E
:1055100004F05EFE05F01CFA40F29823C2F200038C
:105520005B78DBB2002B0BD040F27C23C2F200038D
:105530005B6803F1010240F27C23C2F200035A606F
:1055400040F29823C2F200039B78DBB2002B0BD011
:1055500040F27C23C2F200039B6803F1010240F297
:105560007C23C2F200039A6040F29823C2F2000347
:10557000DB78DBB2002B0BD040F27C23C2F20003BD
:10558000DB6803F1010240F27C23C2F20003DA601F
:1055900040F29823C2F200031B79DBB2002B0BD040
:1055A00040F27C23C2F200031B6903F1010240F2C6
:1055B0007C23C2F200031A6140F29823C2F2000376
:1055C0005B79DBB2002B0BD040F27C23C2F20003EC
:1055D0005B6903F1010240F27C23C2F200035A61CD
:1055E00040F29823C2F200039B79DBB2002B0BD070
:1055F00040F27C23C2F200039B6903F1010240F2F6
:105600007C23C2F200039A6140F2A023C2F200039D
:105610001B68002B22D040F2A423C2F200031B68B7
:1056200003F1FF3240F2A423C2F200031A6040F2F9
:10563000A423C2F200031B68002B0FD140F2A02369
:10564000C2F200031B68984740F2A823C2F200038D
:105650001A6840F2A423C2F200031A6040F2AC239D
:10566000C2F200031B68002B22D040F2B023C2F22A
:1056700000031B6803F1FF3240F2B023C2F20003C3
:105680001A6040F2B023C2F200031B68002B0FD156
:1056900040F2AC23C2F200031B68984740F2B423E7
:1056A000C2F200031A6840F2B023C2F200031A608B
:1056B00040F2B823C2F200031B68002B22D040F254
:1056C000BC23C2F200031B6803F1FF3240F2BC238B
:1056D000C2F200031A6040F2BC23C2F200031B684E
:1056E000002B0FD140F2B823C2F200031B68984789
:1056F00040F2C023C2F200031A6840F2BC23C2F297
:1057000000031A6040F2C423C2F200031B68002B9E
:1057100022D040F2C823C2F200031B6803F1FF321B
:1057200040F2C823C2F200031A6040F2C823C2F25A
:1057300000031B68002B0FD140F2C423C2F2000308
:105740001B68984740F2CC23C2F200031A6840F26B
:10575000C823C2F200031A6040F2D023C2F2000351
:105760001B68002B22D040F2D423C2F200031B6836
:1057700003F1FF3240F2D423C2F200031A6040F278
:10578000D423C2F200031B68002B0FD140F2D023B8
:10579000C2F200031B68984740F2D823C2F200030C
:1057A0001A6840F2D423C2F200031A6040F2F413E4
:1057B000C2F200031B68002B00F08F8040F2002330
:1057C000C2F200031B68002B00F0878040F2F41344
:1057D000C2F200031B68002B2DDD40F21033C2F231
:1057E00000031B68DB7803F00803002B23D040F292
:1057F0001033C2F200031B68DB7823F07F03DBB2B7
:105800004FF002001946FFF77BFA40F21033C2F264
:1058100000031B68DB7803F04003002B0CBF002360
:105820000123DBB24FF001001946FFF769FA4FF090
:105830000A00FFF78FFAFFF7C9FA0346FB7040F240
:105840000C23C2F200031B78FA789A4214D040F27B
:105850000C23C2F200031B78FF2B06D140F20C236D
:10586000C2F20003FA781A7006E0FB78002B03D12D
:105870004FF00100FFF76EFAFB78002B2DD0FFF7F9
:105880004BFB0346002B28D0FFF780FA03461A464D
:1058900040F20823C2F200031B689A421DD040F276
:1058A0000823C2F200031B68FF2B09D1FFF76EFA31
:1058B00003461A4640F20823C2F200031A600CE0C5
:1058C000FFF764FA03461A4640F20823C2F20003C7
:1058D0001A604FF00200FFF73DFA40F26423C2F273
:1058E00000031B78012B1FD140F20433C2F20003E6
:1058F0001A6840F2F3139A420ADD40F20433C2F20E
:1059000000034FF000021A604FF00B0002F0EAF9BA
:1059100040F20433C2F200031B6803F1010240F2BB
:105920000433C2F200031A6040F20833C2F20003EB
:105930001B68032B08DD40F20833C2F200034FF06E
:1059400000021A6005F000FC40F20833C2F20003C6
:105950001B6803F1010240F20833C2F200031A602F
:1059600040F20803C2F200031B68032B40F385805A
:1059700040F20803C2F200034FF000021A6040F246
:10598000DC23C2F200031B68002B22D040F2E0238C
:10599000C2F200031B6803F1FF3240F2E023C2F2BF
:1059A00000031A6040F2E023C2F200031B68002BE0
:1059B0000FD140F2DC23C2F200031B68984740F28B
:1059C000E423C2F200031A6840F2E023C2F20003AB
:1059D0001A6040F2E823C2F200031B68002B22D0B9
:1059E00040F2EC23C2F200031B6803F1FF3240F2E5
:1059F000EC23C2F200031A6040F2EC23C2F200036F
:105A00001B68002B0FD140F2E823C2F200031B6891
:105A1000984740F2F023C2F200031A6840F2EC23E8
:105A2000C2F200031A6040F2F423C2F200031B68C2
:105A3000002B22D040F2F823C2F200031B6803F1CE
:105A4000FF3240F2F823C2F200031A6040F2F8235A
:105A5000C2F200031B68002B0FD140F2F423C2F204
:105A600000031B68984740F2FC23C2F200031A6847
:105A700040F2F823C2F200031A6040F20803C2F2B7
:105A800000031B6803F1010240F20803C2F20003A5
:105A90001A6007F10807BD4680BD00BF80B500AFA2
:105AA0004FF080404FF0080107F04EFE0346002BF8
:105AB00000F0B9804FF0804007F038FE03461A46E8
:105AC00040F26823C2F200031A804FF080434FF087
:105AD00000029A8440F20133C2F200031B78002BCB
