:020000040800F2
:10000000000001208D1E0008359300084193000870
:10001000499300085193000859930008000000001C
:100020000000000000000000000000006D930008C8
:10003000619300080000000079930008455400080F
:1000400085930008919300089D930008A9930008E8
:10005000B5930008C193000869820008C9820008AE
:10006000298300083583000841830008CD930008E8
:10007000D9930008E5930008F1930008FD93000868
:100080000994000815940008219400082D94000894
:100090003994000845940008519400084D830008E5
:1000A0005D94000869940008759400088194000824
:1000B000495A0008D55B00080595000831950008ED
:1000C000E19B0008359C0008419C00084D9C0008FD
:1000D000599C0008FD680008A1A60008CDA70008EB
:1000E0009D840008659C0008719C00087D9C0008A8
:1000F000899C0008959C0008A19C0008AD9C000804
:10010000B99C0008C59C0008D19C0008DD9C000833
:10011000E99C0008F59C0008019D00080D9D000861
:10012000199D0008259D0008319D00083D9D00088F
:1001300010F0030F034670B4C9B210D002B30378B5
:100140008B421ED0013A013005E0CAB110F8014BD4
:10015000013A8C4217D010F0030F0346F5D1032A61
:1001600013D86AB1187888420DD0013A5C1C04E0BB
:1001700014F8015B013A8D4203D02046002AF7D1E2
:10018000104670BC70471846FBE741EA012646EA74
:100190000646184653F8044B86EA0404A4F10135D8
:1001A00025EA040414F0803F03D1043A1846032AD8
:1001B000EFD80346D5E700BF032A2DE9F00109D89F
:1001C0002AB10023CC5CC45401339342FAD1BDE878
:1001D000F00170470B468218014603E02478013392
:1001E00001F8014B11F0030F1C46F7D113F0030582
:1001F0005DD06E42C5F1040CED009B594FEACC0C6A
:1002000008E00434A7593B4607FA0CF748EA070709
:1002100041F8047B571A23FA05F8032FF1DC03E0B9
:1002200014F8013B01F8013B8A42F9D8CFE753F8B3
:10023000404C41F8404C53F83C4C41F83C4C53F88E
:10024000384C41F8384C53F8344C41F8344C53F89E
:10025000304C41F8304C53F82C4C41F82C4C53F8AE
:10026000284C41F8284C53F8244C41F8244C53F8BE
:10027000204C41F8204C53F81C4C41F81C4C53F8CE
:10028000184C41F8184C53F8144C41F8144C53F8DE
:10029000104C41F8104C53F80C4C41F80C4C53F8EE
:1002A000084C41F8084C53F8044C41F8044C561AD9
:1002B0001D460C46403340313F2EB8DC2B460FE044
:1002C00053F8101C44F8101C53F80C1C44F80C1C78
:1002D00053F8081C44F8081C53F8041C44F8041C88
:1002E000161B1D4610330F2E214604F11004E7DCC7
:1002F0002B4602E0246841F8044B551A1C46032D96
:1003000003F10403F6DC8FE7032AC9B270B408D8FE
:100310002AB10346121803F8011B9342FBD170BCAB
:1003200070478218044601E004F8011B14F0030F23
:10033000FAD14FF0013303FB01F31FE044F8403CD6
:1003400044F83C3C44F8383C44F8343C44F8303CF5
:1003500044F82C3C44F8283C44F8243C44F8203C25
:1003600044F81C3C44F8183C44F8143C44F8103C55
:1003700044F80C3C44F8083C44F8043C161B254661
:1003800040343F2EDADC2C4607E044F8103C44F8B9
:100390000C3C44F8083C44F8043C161B2546103439
:1003A0000F2EF2DC01E045F8043B541B032CFADC71
:1003B00001E005F8011B9542FBD3B0E7024640423D
:1003C00040EA020221F0004141EAD272C2F1FE424B
:1003D00002F57002504240EA0202D0170130704725
:1003E00002464042104321F0004141EAD070C0F182
:1003F000FE4000F57000C00F704700BF20F0030101
:1004000010F00300C0F1000051F8043B00F1040CAF
:100410004FEACC0C6FF000021CBF22FA0CF213431F
:100420004FF0010C4CEA0C2C4CEA0C4CA3EB0C02E8
:1004300022EA030212EACC1204BF51F8043B043052
:10044000F4D013F0FF0F1FBF013013F47F4F0130C2
:1004500013F47F0F18BF0130704700BF0000000089
:100460004A1E08BF7047C0F02481884240F21681BE
:10047000114200F01781B0FA80F3B1FA81F2A2EBD9
:100480000303C3F11F0304A202EB03134FF00002A6
:100490009F4600BFAFF30080B0EBC17F00BF42EBCF
:1004A000020228BFA0EBC170B0EB817F00BF42EB1E
:1004B000020228BFA0EB8170B0EB417F00BF42EB8E
:1004C000020228BFA0EB4170B0EB017F00BF42EBFE
:1004D000020228BFA0EB0170B0EBC16F00BF42EB7E
:1004E000020228BFA0EBC160B0EB816F00BF42EBFE
:1004F000020228BFA0EB8160B0EB416F00BF42EB6E
:10050000020228BFA0EB4160B0EB016F00BF42EBDD
:10051000020228BFA0EB0160B0EBC15F00BF42EB5D
:10052000020228BFA0EBC150B0EB815F00BF42EBDD
:10053000020228BFA0EB8150B0EB415F00BF42EB4D
:10054000020228BFA0EB4150B0EB015F00BF42EBBD
:10055000020228BFA0EB0150B0EBC14F00BF42EB3D
:10056000020228BFA0EBC140B0EB814F00BF42EBBD
:10057000020228BFA0EB8140B0EB414F00BF42EB2D
:10058000020228BFA0EB4140B0EB014F00BF42EB9D
:10059000020228BFA0EB0140B0EBC13F00BF42EB1D
:1005A000020228BFA0EBC130B0EB813F00BF42EB9D
:1005B000020228BFA0EB8130B0EB413F00BF42EB0D
:1005C000020228BFA0EB4130B0EB013F00BF42EB7D
:1005D000020228BFA0EB0130B0EBC12F00BF42EBFD
:1005E000020228BFA0EBC120B0EB812F00BF42EB7D
:1005F000020228BFA0EB8120B0EB412F00BF42EBED
:10060000020228BFA0EB4120B0EB012F00BF42EB5C
:10061000020228BFA0EB0120B0EBC11F00BF42EBDC
:10062000020228BFA0EBC110B0EB811F00BF42EB5C
:10063000020228BFA0EB8110B0EB411F00BF42EBCC
:10064000020228BFA0EB4110B0EB011F00BF42EB3C
:10065000020228BFA0EB0110B0EBC10F00BF42EBBC
:10066000020228BFA0EBC100B0EB810F00BF42EB3C
:10067000020228BFA0EB8100B0EB410F00BF42EBAC
:10068000020228BFA0EB4100B0EB010F00BF42EB1C
:10069000020228BFA0EB0100104670470CBF0120EA
:1006A00000207047B1FA81F2C2F11F0220FA02F075
:1006B000704708B14FF0FF3000F066B90029F8D05C
:1006C0002DE90340FFF7CCFEBDE8064002FB00F336
:1006D000A1EB0301704700BF002900F03E8180EAD2
:1006E000010C48BF49424A1E00F01F81030048BF69
:1006F00043428B4240F21E81114200F02381B3FA43
:1007000083F2B1FA81F0A0EB0202C2F11F0204A051
:1007100000EB02124FF00000974600BFAFF30080DD
:10072000B3EBC17F00BF40EB000028BFA3EBC17358
:10073000B3EB817F00BF40EB000028BFA3EB8173C8
:10074000B3EB417F00BF40EB000028BFA3EB417338
:10075000B3EB017F00BF40EB000028BFA3EB0173A8
:10076000B3EBC16F00BF40EB000028BFA3EBC16338
:10077000B3EB816F00BF40EB000028BFA3EB8163A8
:10078000B3EB416F00BF40EB000028BFA3EB416318
:10079000B3EB016F00BF40EB000028BFA3EB016388
:1007A000B3EBC15F00BF40EB000028BFA3EBC15318
:1007B000B3EB815F00BF40EB000028BFA3EB815388
:1007C000B3EB415F00BF40EB000028BFA3EB4153F8
:1007D000B3EB015F00BF40EB000028BFA3EB015368
:1007E000B3EBC14F00BF40EB000028BFA3EBC143F8
:1007F000B3EB814F00BF40EB000028BFA3EB814368
:10080000B3EB414F00BF40EB000028BFA3EB4143D7
:10081000B3EB014F00BF40EB000028BFA3EB014347
:10082000B3EBC13F00BF40EB000028BFA3EBC133D7
:10083000B3EB813F00BF40EB000028BFA3EB813347
:10084000B3EB413F00BF40EB000028BFA3EB4133B7
:10085000B3EB013F00BF40EB000028BFA3EB013327
:10086000B3EBC12F00BF40EB000028BFA3EBC123B7
:10087000B3EB812F00BF40EB000028BFA3EB812327
:10088000B3EB412F00BF40EB000028BFA3EB412397
:10089000B3EB012F00BF40EB000028BFA3EB012307
:1008A000B3EBC11F00BF40EB000028BFA3EBC11397
:1008B000B3EB811F00BF40EB000028BFA3EB811307
:1008C000B3EB411F00BF40EB000028BFA3EB411377
:1008D000B3EB011F00BF40EB000028BFA3EB0113E7
:1008E000B3EBC10F00BF40EB000028BFA3EBC10377
:1008F000B3EB810F00BF40EB000028BFA3EB8103E7
:10090000B3EB410F00BF40EB000028BFA3EB410356
:10091000B3EB010F00BF40EB000028BFA3EB0103C6
:10092000BCF1000F48BF404270479CEA000F48BF2F
:100930004042704738BF002004BF4FEAEC7040F0DF
:1009400001007047B1FA81F2C2F11F02BCF1000F41
:1009500023FA02F048BF404270470028C8BF6FF03A
:100960000040B8BF4FF0004000F00EB80029F4D0AE
:100970002DE90340FFF7B3FEBDE8064002FB00F39C
:10098000A1EB0301704700BF704700BF81F0004139
:1009900002E000BF83F0004330B54FEA41044FEA64
:1009A000430594EA050F08BF90EA020F1FBF54EAFF
:1009B000000C55EA020C7FEA645C7FEA655C00F09B
:1009C000E2804FEA5454D4EB5555B8BF6D420CDD6C
:1009D0002C4480EA020281EA030382EA000083EAEF
:1009E000010180EA020281EA0303362D88BF30BD8F
:1009F00011F0004F4FEA01314FF4801C4CEA1131E5
:100A000002D0404261EB410113F0004F4FEA033343
:100A10004CEA133302D0524263EB430394EA050FCE
:100A200000F0A780A4F10104D5F1200E0DDB02FA3D
:100A30000EFC22FA05F2801841F1000103FA0EF2D1
:100A4000801843FA05F359410EE0A5F120050EF197
:100A5000200E012A03FA0EFC28BF4CF0020C43FAC8
:100A600005F3C01851EBE37101F0004507D54FF0D5
:100A7000000EDCF1000C7EEB00006EEB0101B1F525
:100A8000801F1BD3B1F5001F0CD349085FEA30006B
:100A90004FEA3C0C04F101044FEA445212F5800F76
:100AA00080F09A80BCF1004F08BF5FEA500C50F113
:100AB000000041EB045141EA050130BD5FEA4C0CF6
:100AC000404141EB010111F4801FA4F10104E9D17F
:100AD00091F0000F04BF01460020B1FA81F308BF76
:100AE0002033A3F10B03B3F120020CDA0C3208DD42
:100AF00002F1140CC2F10C0201FA0CF021FA02F11D
:100B00000CE002F11402D8BFC2F1200C01FA02F18C
:100B100020FA0CFCDCBF41EA0C019040E41AA2BFB1
:100B200001EB0451294330BD6FEA04041F3C1CDA79
:100B30000C340EDC04F11404C4F1200220FA04F099
:100B400001FA02F340EA030021FA04F345EA030143
:100B500030BDC4F10C04C4F1200220FA02F001FA05
:100B600004F340EA0300294630BD21FA04F0294687
:100B700030BD94F0000F83F4801306BF81F4801120
:100B80000134013D4EE77FEA645C18BF7FEA655C93
:100B900029D094EA050F08BF90EA020F05D054EA65
:100BA000000C04BF1946104630BD91EA030F1EBF6A
:100BB0000021002030BD5FEA545C05D1400049416E
:100BC00028BF41F0004130BD14F580043CBF01F561
:100BD000801130BD01F0004545F0FE4141F4700147
:100BE0004FF0000030BD7FEA645C1ABF1946104622
:100BF0007FEA655C1CBF0B46024650EA013406BF23
:100C000052EA033591EA030F41F4002130BD00BFE1
:100C100090F0000F04BF0021704730B54FF480649E
:100C200004F132044FF000054FF0000150E700BF1F
:100C300090F0000F04BF0021704730B54FF480647E
:100C400004F1320410F0004548BF40424FF000016B
:100C50003EE700BF42004FEAE2014FEA31014FEAAE
:100C600002701FBF12F07F4393F07F4F81F06051FD
:100C7000704792F0000F14BF93F07F4F704730B56C
:100C80004FF4607401F0004521F0004120E700BFFF
:100C900050EA010208BF704730B54FF000050AE086
:100CA00050EA010208BF704730B511F0004502D587
:100CB000404261EB41014FF4806404F132045FEA89
:100CC000915C3FF4DCAE4FF003025FEADC0C18BF2E
:100CD00003325FEADC0C18BF033202EBDC02C2F124
:100CE000200300FA03FC20FA02F001FA03FE40EAB6
:100CF0000E0021FA02F11444C1E600BF70B54FF0B6
:100D0000FF0C4CF4E06C1CEA11541DBF1CEA135597
:100D100094EA0C0F95EA0C0F00F0DEF82C4481EAFF
:100D2000030621EA4C5123EA4C5350EA013518BF1F
:100D300052EA033541F4801143F4801338D0A0FB0C
:100D400002CE4FF00005E1FB02E506F00042E0FBB9
:100D500003E54FF00006E1FB03569CF0000F18BFBF
:100D60004EF0010EA4F1FF04B6F5007F64F5407467
:100D700004D25FEA4E0E6D4146EB060642EAC621FA
:100D800041EA55514FEAC52040EA5E504FEACE2E67
:100D9000B4F1FD0C88BFBCF5E06F1ED8BEF1004F6A
:100DA00008BF5FEA500E50F1000041EB045170BDE6
:100DB00006F0004646EA010140EA020081EA03012A
:100DC000B4EB5C04C2BFD4EB0C0541EA045170BD26
:100DD00041F480114FF0000E013C00F3AB8014F1A0
:100DE000360FDEBF002001F0004170BDC4F10004E9
:100DF000203C35DA0C341BDC04F11404C4F120056A
:100E000000FA05F320FA04F001FA05F240EA0200C4
:100E100001F0004221F0004110EBD37021FA04F6FA
:100E200042EB06015EEA430E08BF20EAD37070BDB4
:100E3000C4F10C04C4F1200500FA04F320FA05F013
:100E400001FA04F240EA020001F0004110EBD37015
:100E500041F100015EEA430E08BF20EAD37070BD85
:100E6000C4F1200500FA05F24EEA020E20FA04F35E
:100E700001FA05F243EA020321FA04F001F000410D
:100E800021FA04F220EA020000EBD3705EEA430E7E
:100E900008BF20EAD37070BD94F0000F0FD101F0AD
:100EA0000046400041EB010111F4801F08BF013CE6
:100EB000F7D041EA060195F0000F18BF704703F024
:100EC0000046520043EB030313F4801F08BF013DAB
:100ED000F7D043EA0603704794EA0C0F0CEA135567
:100EE00018BF95EA0C0F0CD050EA410618BF52EA21
:100EF0004306D1D181EA030101F000414FF0000027
:100F000070BD50EA410606BF1046194652EA430634
:100F100019D094EA0C0F02D150EA013613D195EAA8
:100F20000C0F05D152EA03361CBF104619460AD1F0
:100F300081EA030101F0004141F0FE4141F47001FA
:100F40004FF0000070BD41F0FE4141F4780170BDEA
:100F500070B54FF0FF0C4CF4E06C1CEA11541DBF4F
:100F60001CEA135594EA0C0F95EA0C0F00F0A7F851
:100F7000A4EB050481EA030E52EA03354FEA01317E
:100F800000F088804FEA03334FF0805545EA131391
:100F900043EA12634FEA022245EA111545EA106559
:100FA0004FEA00260EF000419D4208BF964244F1F0
:100FB000FD0404F5407402D25B084FEA3202B61A0F
:100FC00065EB03055B084FEA32024FF480104FF4E3
:100FD000002CB6EB020E75EB030E22BFB61A754657
:100FE00040EA0C005B084FEA3202B6EB020E75EBEA
:100FF000030E22BFB61A754640EA5C005B084FEA52
:101000003202B6EB020E75EB030E22BFB61A75461E
:1010100040EA9C005B084FEA3202B6EB020E75EB29
:10102000030E22BFB61A754640EADC0055EA060EEA
:1010300018D04FEA051545EA16754FEA06164FEA2D
:10104000C30343EA52734FEAC2025FEA1C1CC0D1D9
:1010500011F4801F0BD141EA00014FF000004FF066
:10106000004CB6E711F4801F04BF01430020B4F127
:10107000FD0C88BFBCF5E06F3FF6AFAEB5EB030CDF
:1010800004BFB6EB020C5FEA500C50F1000041EBDC
:10109000045170BD0EF0004E4EEA113114EB5C04A9
:1010A000C2BFD4EB0C0541EA045170BD41F480117C
:1010B0004FF0000E013C90E645EA060E8DE60CEA84
:1010C000135594EA0C0F08BF95EA0C0F3FF43BAFA1
:1010D00094EA0C0F0AD150EA01347FF434AF95EA58
:1010E0000C0F7FF425AF104619462CE795EA0C0F3C
:1010F00006D152EA03353FF4FDAE1046194622E709
:1011000050EA410618BF52EA43067FF4C5AE50EAE2
:1011100041047FF40DAF52EA43057FF4EBAE12E7D2
:101120004FF0FF3C06E000BF4FF0010C02E000BFB3
:101130004FF0010C4DF804CD4FEA410C7FEA6C5C96
:101140004FEA430C18BF7FEA6C5C1BD001B050EA39
:10115000410C0CBF52EA430C91EA030F02BF90EA24
:10116000020F0020704710F1000F91EA030F58BFE3
:10117000994208BF90422CBFD8176FEAE37040F045
:10118000010070474FEA410C7FEA6C5C02D150EAE3
:10119000013C07D14FEA430C7FEA6C5CD6D152EA9E
:1011A000033CD3D05DF8040B704700BF8446104663
:1011B00062468C461946634600E000BF01B5FFF762
:1011C000B7FF002848BF10F1000F01BD4DF808ED32
:1011D000FFF7F4FF0CBF012000205DF808FB00BF03
:1011E0004DF808EDFFF7EAFF34BF012000205DF85D
:1011F00008FB00BF4DF808EDFFF7E0FF94BF0120AA
:1012000000205DF808FB00BF4DF808EDFFF7CEFFAA
:1012100094BF012000205DF808FB00BF4DF808EDE9
:10122000FFF7C4FF34BF012000205DF808FB00BFBA
:101230004FEA410212F5001215D211D56FF47873FE
:10124000B3EB625212D94FEAC12343F0004343EAA1
:10125000505311F0004F23FA02F018BF404270477C
:101260004FF00000704750EA013005D111F0004006
:1012700008BF6FF0004070474FF00000704700BF9C
:1012800080F0004002E000BF81F0004142001FBF3B
:101290005FEA410392EA030F7FEA226C7FEA236C44
:1012A0006AD04FEA1262D2EB1363C1BFD218414039
:1012B00048404140B8BF5B42192B88BF704710F0CF
:1012C000004F40F4000020F07F4018BF404211F072
:1012D000004F41F4000121F07F4118BF494292EADA
:1012E000030F3FD0A2F1010241FA03FC10EB0C0006
:1012F000C3F1200301FA03F100F0004302D5494293
:1013000060EB4000B0F5000F13D3B0F1807F06D33F
:1013100040084FEA310102F10102FE2A51D2B1F137
:10132000004F40EBC25008BF20F0010040EA03002C
:101330007047490040EB000010F4000FA2F10102D9
:10134000EDD1B0FA80FCACF1080CB2EB0C0200FA63
:101350000CF0AABF00EBC25052421843BCBFD040B1
:101360001843704792F0000F81F4000106BF80F42B
:1013700000000132013BB5E74FEA41037FEA226CEE
:1013800018BF7FEA236C21D092EA030F04D092F0B9
:10139000000F08BF0846704790EA010F1CBF0020ED
:1013A000704712F07F4F04D1400028BF40F000404A
:1013B000704712F100723CBF00F50000704700F06A
:1013C000004343F0FE4040F4000070477FEA226291
:1013D00016BF08467FEA23630146420206BF5FEA62
:1013E000412390EA010F40F4800070474FF0000362
:1013F00004E000BF10F0004348BF40425FEA000C29
:1014000008BF704743F0964301464FF000001CE0D0
:1014100050EA010208BF70474FF000030AE000BF26
:1014200050EA010208BF704711F0004302D5404264
:1014300061EB41015FEA010C02BF844601460020D6
:1014400043F0B64308BFA3F18053A3F50003BCFAF1
:101450008CF2083AA3EBC25310DB01FA02FC63449E
:1014600000FA02FCC2F12002BCF1004F20FA02F2A5
:1014700043EB020008BF20F00100704702F1200298
:1014800001FA02FCC2F1200250EA4C0021FA02F2F9
:1014900043EB020008BF20EADC7070474FF0FF0CFE
:1014A0001CEAD0521EBF1CEAD15392EA0C0F93EAF9
:1014B0000C0F6FD01A4480EA010C400218BF5FEA9B
:1014C00041211ED04FF0006343EA501043EA51110E
:1014D000A0FB01310CF00040B1F5000F3EBF490008
:1014E00041EAD3715B0040EA010062F17F02FD2A0C
:1014F0001DD8B3F1004F40EBC25008BF20F00100EF
:10150000704790F0000F0CF0004C08BF49024CEA05
:10151000502040EA51207F3AC2BFD2F1FF0340EA97
:10152000C250704740F400004FF00003013A5DDC08
:1015300012F1190FDCBF00F000407047C2F1000249
:10154000410021FA02F1C2F1200200FA02FC5FEA36
:10155000310040F1000053EA4C0308BF20EADC7080
:10156000704792F0000F00F0004C02BF400010F4F2
:10157000000F013AF9D040EA0C0093F0000F01F09F
:10158000004C02BF490011F4000F013BF9D041EAC1
:101590000C018FE70CEAD15392EA0C0F18BF93EAC3
:1015A0000C0F0AD030F0004C18BF31F0004CD8D1ED
:1015B00080EA010000F00040704790F0000F17BF74
:1015C00090F0004F084691F0000F91F0004F14D0BA
:1015D00092EA0C0F01D142020FD193EA0C0F03D112
:1015E0004B0218BF084608D180EA010000F0004015
:1015F00040F0FE4040F40000704740F0FE4040F4F0
:10160000400070474FF0FF0C1CEAD0521EBF1CEA8E
:10161000D15392EA0C0F93EA0C0F69D0A2EB0302AC
:1016200080EA010C49024FEA402037D04FF0805346
:1016300043EA111143EA10130CF000408B4238BF0B
:101640005B0042F17D024FF4000C8B4224BF5B1A19
:1016500040EA0C00B3EB510F24BFA3EB510340EA67
:101660005C00B3EB910F24BFA3EB910340EA9C0015
:10167000B3EBD10F24BFA3EBD10340EADC001B0185
:1016800018BF5FEA1C1CE0D1FD2A3FF650AF8B4229
:1016900040EBC25008BF20F0010070470CF0004C36
:1016A0004CEA50207F32C2BFD2F1FF0340EAC25061
:1016B000704740F400004FF00003013A37E792F022
:1016C000000F00F0004C02BF400010F4000F013A80
:1016D000F9D040EA0C0093F0000F01F0004C02BF7B
:1016E000490011F4000F013BF9D041EA0C0195E7E4
:1016F0000CEAD15392EA0C0F08D142027FF47DAF7D
:1017000093EA0C0F7FF470AF084676E793EA0C0F6C
:1017100004D14B023FF44CAF08466EE730F0004C6A
:1017200018BF31F0004CCAD130F000427FF45CAFFA
:1017300031F000437FF43CAF5FE700BF42000ED2C0
:10174000B2F1FE4F0BD34FF09E03B3EB126209D4FC
:101750004FEA002343F0004323FA02F070474FF0B2
:101760000000704712F1610F01D1420202D14FF027
:10177000FF3070474FF00000704700BF73B96AB97F
:10178000002908BF0028BCBF00204FF00041C4BFA3
:101790006FF000414FF0FF30FFF7F6B882B0EC4633
:1017A0002DE9005000F006F8DDF804E002B00CBCB2
:1017B000704700BF2DE970431646804689461D4696
:1017C00000F028F800FB05F3A0FB064506FB0136F8
:1017D000069B7519B8EB040469EB0505C3E90045E0
:1017E000BDE870832DE970431646804689461D4644
:1017F00000F0C2F900FB05F3A0FB064506FB01362D
:10180000069B7519B8EB040469EB0505C3E90045AF
:10181000BDE8708300292DE9F04F1C4685B0C0F269
:10182000CB800026002CC0F2C2808C46174614469E
:10183000054688469A46002B49D18A426DD9B2FAAC
:1018400082F353B1C3F1200001FA03F835FA00F234
:1018500017FA03F442EA08089D404FEA144A40464A
:1018600051461FFA84FBFEF7FBFD51462F0C8146C3
:101870004046FEF723FF0BFB09F347EA01484345C7
:1018800009D918EB040809F1FF3904D2434584BF94
:1018900009F1FF39A044C3EB080851464046ADB2F8
:1018A000FEF7DEFD514607464046FEF707FF0BFBFD
:1018B00007FB45EA0145AB4505D9013F2D1902D289
:1018C000AB4588BF013F47EA0949002403E08B424A
:1018D0000CD90024A1464A46234616B1524263EB76
:1018E00043031046194605B0BDE8F08FB3FA83F400
:1018F000002C40F0B4808B424FF001092CBF4FF018
:10190000000C4FF0010C82428CBF67464CF001077F
:10191000002FE0D13C46B946DDE722B9012011464F
:10192000FEF79EFD0446B4FA84F3002B4AD1C4EBC3
:101930000808270C1FFA84FA012102913946404613
:10194000FEF78EFD39464FEA154B81464046FEF7BD
:10195000B5FE0AFB09F34BEA014B5B4509D91BEBCA
:10196000040B09F1FF3904D25B4584BF09F1FF394B
:10197000A344C3EB0B0B39465846ADB2FEF770FDDE
:10198000394680465846FEF799FE0AFB08FA45EAB2
:101990000145AA4507D92D1908F1FF3803D2AA45F8
:1019A00088BF08F1FF3848EA0949029C93E7F643EB
:1019B000524263EB430338E7404261EB41014FF091
:1019C000FF362FE79C40C3F1200028FA00FA08FAFE
:1019D00003FB270C35FA00F23946504642EA0B0267
:1019E0009D400292FEF73CFD394683465046FEF785
:1019F00065FE029B1FFA84FA4FEA13490AFB0BF3B8
:101A000049EA0148434505D918EB04080BF1FF3BAF
:101A1000C0F0AB80C3EB080839464046FEF720FD16
:101A2000394681464046FEF749FE029A0AFB09F311
:101A30001FFA82FC4CEA0148434509D918EB040817
:101A400009F1FF3904D2434584BF09F1FF39A044AD
:101A500049EA0B4EC3EB0808CDF808E06EE7C4F185
:101A6000200003FA04FA32FA00F321FA00F843EAFC
:101A70000A0A35FA00F201FA04F940464FEA1A4B15
:101A800042EA09010391594617FA04F30293FEF75B
:101A9000E7FC594681464046FEF710FE1FFA8AF3DE
:101AA000039803FB09F2070C47EA0148424504D9B1
:101AB00018EB0A0809F1FF3951D3C2EB080859465F
:101AC00040460193FEF7CCFC594607464046FEF7D8
:101AD000F5FD0198039A00FB07F31FFA82FC4CEA1C
:101AE000014C634507D9013F1CEB0A0C03D2634547
:101AF00001D9013FD44447EA0949029FC3EB0C03D3
:101B00001FFA89FE4FEA1940B9B23F0C01FB0EF8EB
:101B100001FB00F107FB0E1207FB00FC02EB184271
:101B2000914288BF0CF5803C0CEB124E734512D3EA
:101B30004FEA02421FFA88F814BF0023012302EB88
:101B4000080C15FA04F464452CBF002403F00104CA
:101B5000002C3FF4C0AE09F1FF390024BBE642453A
:101B600084BF09F1FF39D044A7E7434584BF0BF197
:101B7000FF3BA0444EE700BF2DE9F04F054683B080
:101B80000C46174680460E46002B4FD18A4263D939
:101B9000B2FA82F353B1C3F1200011FA03F635FA19
:101BA00000F29F4042EA060605FA03F83C0C304674
:101BB00021461FFA87FAFEF753FC21464FEA1845E3
:101BC00081463046FEF77AFD0AFB09F345EA0146F5
:101BD000B34208D9F61909F1FF3904D2B34284BFE0
:101BE00009F1FF39F619F61A214630461FFA88F82E
:101BF000FEF736FC214605463046FEF75FFD0AFB40
:101C000005FA48EA0148C24506D9013D18EB070824
:101C100002D2C24588BF013D45EA094A0026314645
:101C2000D046B146504603B0BDE8F08F8B425BD83A
:101C3000B3FA83F6002E5AD18B424FF0010A2CBF23
:101C40000024012482428CBF254644F00105002D6A
:101C5000E5D12E46AA46E2E722B901201146FEF759
:101C6000FFFB0746B7FA87F3002B40F0BB80E41B6D
:101C70004FEA174BBDB2012659462046FEF7F0FB4E
:101C8000594682462046FEF719FD4FEA184C05FBDF
:101C90000AF34CEA0144A34208D9E4190AF1FF3AD5
:101CA00004D2A34284BF0AF1FF3AE419E41A594668
:101CB0002046FEF7D5FB594681462046FEF7FEFC3E
:101CC0001FFA88F305FB09F543EA0148454508D9A1
:101CD00018EB070809F1FF3903D2454588BF09F120
:101CE000FF3949EA0A4A9AE70026B24697E7C6F161
:101CF000200013FA06F132FA00F735FA00F30F4329
:101D000024FA00FBB44058464FEA174843EA04015E
:101D10000191414612FA06F40094FEF7A1FB4146F8
:101D2000BCB282465846FEF7C9FC019A04FB0AF38E
:101D30004FEA124B4BEA014B5B4505D91BEB070BF6
:101D40000AF1FF3AC0F09680C3EB0B0B41465846B0
:101D5000FEF786FB414681465846FEF7AFFC019AE6
:101D600004FB09F41FFA82F848EA01439C4203D9B4
:101D7000DB1909F1FF3977D3009F49EA0A4A1C1B96
:101D80001FFA8AF11FFA87F83A0C4FEA1A4708FB44
:101D900001FC08FB07F302FB013002FB07F900EB33
:101DA0001C418B4288BF09F5803909EB114E7445FF
:101DB00014D34FEA01491FFA8CF314BF4FF0000E01
:101DC0004FF0010E09EB030C15FA06F666452CBF21
:101DD00000260EF00106002E3FF421AF0AF1FF3A73
:101DE00000261CE79F40C3F1200924FA09F614FAE3
:101DF00003F24FEA174B25FA09FA5946304605FA1D
:101E000003F84AEA020AFEF72BFB5946BDB24FEA35
:101E10001A4481463046FEF751FC05FB09F344EABB
:101E20000144A34203D9E41909F1FF3928D3E41A84
:101E300059462046FEF714FB594606462046FEF753
:101E40003DFC1FFA8AF005FB06F340EA0144A34279
:101E500006D9013EE41903D2A34201D9013EE41997
:101E6000E41A46EA094607E79C4284BF09F1FF39B4
:101E7000DB1981E75B4584BF0AF1FF3ABB4463E7A6
:101E8000A34284BF09F1FF39E419D0E7684620F086
:101E900007018D462DE9F14FADF5287D12AF40F6D3
:101EA000C443C0F60103C7F8503240F20003C2F247
:101EB0000003C7F84C3211E0D7F850321A68D7F84F
:101EC0004C321A60D7F84C3203F10403C7F84C3295
:101ED000D7F8503203F10403C7F85032D7F84C2238
:101EE00040F2F013C2F200039A42E5D340F2F0133D
:101EF000C2F20003C7F84C320AE0D7F84C324FF078
:101F000000021A60D7F84C3203F10403C7F84C32D0
:101F1000D7F84C2241F29423C2F200039A42ECD348
:101F200040F2F013C2F200034FF000021A7040F2C8
:101F3000F413C2F200034FF000021A6040F2F813EB
:101F4000C2F200034FF000021A7040F2FC13C2F21A
:101F500000034FF000021A6040F20023C2F20003B7
:101F60004FF000021A6040F20423C2F200034FF067
:101F700000021A7040F20523C2F200034FF0000283
:101F80001A7040F20823C2F200034FF0FF021A60F9
:101F900040F20C23C2F200034FF0FF021A7040F22D
:101FA0000D23C2F200034FF000021A704FF000033D
:101FB000C7F8543219E040F63C03C2F20003D7F8E8
:101FC00054229B184FF07F021A7040F64813C2F259
:101FD0000003D7F854229B184FF07F021A70D7F8ED
:101FE000543203F10103C7F85432D7F854320B2BA3
:101FF000E1DD40F63C03C2F200034FF00002DA716B
:1020000040F63C03C2F200034FF000021A7240F6A1
:102010004813C2F200034FF00002DA7140F6481391
:10202000C2F200034FF000021A7205F065FB00F0E7
:1020300069FD03F013FF40F2F013C2F200034FF00A
:1020400001021A7002F06EFF0346002B00F09E8220
:102050004FF0C80003F03CF909F010F94FF02000F0
:1020600002F03AFE0346002B6BD040F2F813C2F2A6
:1020700000031B78002B64D140F63C03C2F200033E
:102080001B784FF00100194606F07EFB40F63C033A
:10209000C2F200035B784FF00200194606F074FBB1
:1020A00040F63C03C2F200039B784FF00300194650
:1020B00006F06AFB40F63C03C2F20003DB784FF007
:1020C0000400194606F060FB40F63C03C2F2000330
:1020D0001B794FF00500194606F056FB40F64813F1
:1020E000C2F200031B784FF00600194606F04CFBC5
:1020F00040F64813C2F200035B784FF00700194620
:1021000006F042FB40F64813C2F200039B784FF002
:102110000800194606F038FB40F64813C2F20003E7
:10212000DB784FF00900194606F02EFB40F6481305
:10213000C2F200031B794FF00A00194606F024FB97
:102140009AE74FF00A0003F0C3F840F20D23C2F201
:1021500000031B78002B0CD04FF47A7003F0B8F812
:1021600040F20D23C2F200034FF000021A7009F092
:1021700085F84FF0320003F0ABF84FF00003C7F8DA
:10218000483207F13C0240F24413C0F601031B88B9
:10219000138002F102024FF4FF7310464FF000016A
:1021A0001A46FEF7B1F84FF00003C7F8483236E0A0
:1021B000D7F84832DBB203F10103DBB2184605F071
:1021C000C9FB0346002B13D1D7F84832DBB203F129
:1021D0000103DBB2184605F0B5FD034603F1030326
:1021E000DAB207F50F71D7F84832CB181A7010E041
:1021F000D7F84832DBB203F10103DBB2184605F031
:10220000F3FC03461A4607F50F71D7F84832CB188E
:102210001A70D7F8483203F10103C7F84832D7F8EB
:1022200048320B2BC4DD97F83C321E4697F83D32FE
:102230001D4697F83E32184697F83F321C4697F8ED
:1022400040327B6397F841323B6397F84232FB623E
:1022500097F843329B4697F844329A4697F84532AE
:10226000994697F84632984697F847329C4640F28E
:102270001033C2F200031B681B799E4640F21033F4
:10228000C2F200031B685B79194640F2F813C2F2F0
:1022900000031B781A4607F13C0300900194786B09
:1022A0000290386B0390F86A0490CDF814B0CDF822
:1022B00018A0CDF81C90CDF82080CDF824C0CDF822
:1022C00028E00B910C92184640F2A401C0F60101DF
:1022D00032462B460CF0A4FA4FF00003C7F8483200
:1022E00007F13C02D7F84832D3181B78002B49D1AC
:1022F0004FF00D0007F054FD4FF0320002F0E8FF00
:102300004FF0010005F0A2FC05464FF0020005F079
:102310009DFC04464FF0030005F098FC83464FF007
:10232000040005F093FC82464FF0050005F08EFC9A
:1023300081464FF0060005F089FC80464FF007000B
:1023400005F084FC06464FF0080005F07FFC0246CD
:1023500007F13C03CDF800B0CDF804A0CDF808900B
:10236000CDF80C8004960592184640F2D801C0F6CC
:1023700001012A4623460CF053FA4FF00003C7F838
:10238000483210E007F13C02D7F84832D3181B78E6
:102390005BB2D7F8482202F10102C7F8482218467A
:1023A00007F0FEFC9CE707F13C02D7F84832D3184F
:1023B0001B78002B40F0BB804FF00D0007F0F0FCC5
:1023C0004FF0320002F084FF40F68C53C2F200035B
:1023D0001B68BB6240F68C53C2F200039B687B62B1
:1023E00040F68C53C2F200031B699E4640F68C53A4
:1023F000C2F200039B699C4640F68C53C2F2000374
:102400001B6A984640F68C53C2F200039B6A9A46B8
:1024100040F68C53C2F200031B6B9B4640F68C5374
:10242000C2F200039B6B3B6240F68C53C2F2000386
:102430001B6CFB6140F68C53C2F200039B6CBB61CA
:1024400040F68C53C2F200039B889BB27B6140F63E
:102450008C53C2F200039B899BB23B6140F68C53C4
:10246000C2F200039B8A9BB2FB6040F68C53C2F21F
:1024700000039B8B9BB2994640F68C53C2F200033B
:102480009B8C9BB21E4640F68C53C2F200039B8D80
:102490009BB21D4640F68C53C2F200039B8E9BB24A
:1024A0001C4640F68C53C2F200039B8F9BB2184629
:1024B00040F68C53C2F20003B3F844309BB2194685
:1024C00040F68C53C2F20003B3F84C309BB21A466C
:1024D00007F13C037B60CDF800E0CDF804C0CDF8F7
:1024E0000880CDF80CA0CDF810B03B6A0593FB69CD
:1024F0000693BB6907937B6908933B690993FB6863
:102500000A93CDF82C900C960D950E940F90109187
:102510001192786840F2F801C0F60101BA6A7B6A4C
:102520000CF07EF94FF00003C7F8483210E007F1D5
:102530003C02D7F84832D3181B785BB2D7F8482250
:1025400002F10102C7F84822184607F029FC2AE7E1
:1025500007F13C02D7F84832D3181B78002B04D17E
:102560004FF00D0007F01CFCEBE507F13C02D7F83B
:102570004832D3181B785BB2D7F8482202F1010227
:10258000C7F84822184607F00BFCE1E740F2F413C5
:10259000C2F200031B68002B1ED140F2FC13C2F2F2
:1025A00000031B68002B17D14FF0C80002F090FE0B
:1025B00003E04FF0640002F08BFE40F21033C2F2F1
:1025C00000031B689B78082BF3D14FF0640002F0E6
:1025D0007FFE00F087FA01E000F002F8FEE700BF9E
:1025E00080B584B000AF40F20023C2F200034FF088
:1025F00000021A6040F20823C2F200034FF0FF020B
:102600001A6002F0C7FC4FF0C80002F061FE03E060
:102610004FF0640002F05CFE40F21033C2F200039F
:102620001B689B78082BF3D14FF00003FB6036E06A
:10263000FB6803F16403FB60FA6844F6D353C1F20C
:10264000620383FB02134FEAE3114FEAE273CB1AF2
:102650004FF4FA6101FB03F3D31A002B1BD140F2B4
:10266000F413C2F200031A6840F2FC13C2F2000332
:102670001B6840F24430C0F6010011461A4606F0CD
:1026800021FE4FF0320002F023FE40F26030C0F62F
:10269000010006F017FE4FF0640002F019FE40F250
:1026A000F413C2F200031B68B3F1FF3F0FD040F2F6
:1026B000FC13C2F200031B68B3F1FF3F07D040F2E6
:1026C0001033C2F200031B68DB78002BB0D040F25D
:1026D0001033C2F200031B68DB7803F00803002B01
:1026E0000DD040F2F413C2F200034FF0FF321A6033
:1026F00040F2FC13C2F200034FF0FF321A6040F2C6
:10270000F413C2F200031B68B3F1FF3F37D140F26C
:102710007830C0F6010006F0D5FD40F20523C2F284
:1027200000034FF001021A7000F05CFA40F205233A
:10273000C2F200034FF000021A7003E04FF0640091
:1027400002F0C6FD02F018FB0346002BF6D002F0A3
:1027500091FD03461A4640F20023C2F200031A60BC
:1027600002F0EAFA0346002B04D04FF0000000F01C
:102770003FFA03E04FF0000001F018FEFEE702F020
:1027800009FB0346002B00F0A88140F2F413C2F2CB
:1027900000031B68002B06D140F2F413C2F20003C1
:1027A0004FF001021A6002F0E7FA0346002B3ED117
:1027B0004FF00003BB6000E000BF4FF0640002F088
:1027C00087FD40F21033C2F200031B68DB7803F090
:1027D0000803002B03D04FF0060002F091FABB680B
:1027E00003F16403BB60BA6844F6D353C1F26203D9
:1027F00083FB02134FEAE3114FEAE273CB1A4FF463
:10280000FA6101FB03F3D31A002BD5D140F2A030BB
:10281000C0F6010006F056FD4FF0320002F058FD00
:1028200040F2C430C0F6010006F04CFDC5E702F0EE
:1028300083FA0346002B00F00A814FF000037B600F
:1028400086E04FF0640002F043FD40F21033C2F224
:1028500000031B68DB7803F00803002B23D040F251
:102860001033C2F200031B68DB7823F07F03DBB276
:102870004FF00200194602F019FA40F21033C2F28A
:1028800000031B68DB7803F04003002B0CBF002320
:102890000123DBB24FF00100194602F007FA4FF0B6
:1028A0000B0002F02DFA7B6803F164037B607A6809
:1028B00044F6D353C1F2620383FB02134FEAE311E0
:1028C0004FEAE273CB1A4FF4FA6101FB03F3D31A18
:1028D000002B3DD140F2F413C2F200031A6840F21B
:1028E000FC13C2F200031B6840F24430C0F6010042
:1028F00011461A4606F0E6FC4FF0320002F0E8FC02
:1029000040F2F413C2F200031A6840F2FC13C2F260
:1029100000031B6840F2E430C0F6010011461A467D
:1029200006F0D0FC4FF0320002F0D2FC40F2F4137B
:10293000C2F200031A6840F2FC13C2F200031B68E3
:1029400040F21840C0F6010011461A4606F0BAFCE3
:1029500040F21033C2F200031B68DB7803F001037E
:10296000002B0AD140F21033C2F200031B68DB785F
:1029700003F00203002B3FF464AF40F20423C2F2E1
:1029800000031B78002B20D140F21033C2F2000369
:102990001B685B7B002B18D140F21033C2F200039E
:1029A0001B689B7B002B10D140F21033C2F2000356
:1029B0001B685B7E002B08D140F21033C2F200038B
:1029C0001B689B7E002B3FF43CAF40F2F413C2F235
:1029D00000031B68012B2FD040F20023C2F200033A
:1029E0004FF000021A6040F20823C2F200034FF0D9
:1029F000FF021A6002F03EFC03461A4640F2002332
:102A0000C2F200031A6040F20523C2F200034FF045
:102A100001021A7000F0E6F840F20523C2F200034A
:102A20004FF000021A7040F2F413C2F200031B6868
:102A3000184600F0DDF809E04FF001004FF0010109
:102A400002F034F94FF0030002F05AF9FEE740F2C9
:102A5000FC13C2F200031B68002B3ED002F06CF99D
:102A60000346002B39D140F20023C2F200034FF09D
:102A700000021A6040F20823C2F200034FF0FF0286
:102A80001A6040F2FC13C2F200031A6840F2F41319
:102A9000C2F200031A6002F0EDFB03461A4640F250
:102AA0000023C2F200031A6040F20523C2F20003C1
:102AB0004FF001021A7000F095F840F20523C2F2BF
:102AC00000034FF000021A7040F2FC13C2F2000340
:102AD0001B68184601F06AFCFEE74FF47A7002F0BA
:102AE000F7FBFAE780B500AF00F07CF84FF000008C
:102AF00000F07EF84FF0000001F058FC4FF00103A9
:102B0000184680BD80B588B008AF4FF0FF304FF059
:102B1000FF3102F0A3F94FF0000002F0C3F940F2D8
:102B20004040C0F6010002F05DF94FF00103009350
:102B30004FF0010301934FF0010302934FF00103A3
:102B400003934FF0010304934FF0010305934FF0FB
:102B5000010306934FF0010307934FF001004FF07C
:102B600001014FF001024FF0010304F09BFF4FF011
:102B7000050300934FF0060301934FF00703029300
:102B80004FF0080303934FF0090304934FF00A0337
:102B900005934FF001004FF002014FF003024FF098
:102BA000040308F0D5FB4FF0000300934FF000033F
:102BB00001934FF0000302934FF0000303934FF093
:102BC000000304934FF0000305934FF000004FF013
:102BD00000014FF000024FF0000308F0BDFCBD46BD
:102BE00080BD00BF80B400AFBD4680BC704700BF51
:102BF00080B582B000AF786040F2B873C2F20003D3
:102C00004FF000021A6001F0C4BB4FF0060004F060
:102C1000EBFF03461A4640F25873C2F200031A60F3
:102C200040F25873C2F200031B68002B40F074821C
:102C300001F07EFF4FF4967002F04AFB4FF0010066
:102C400004F0E0FD4FF001004FF0000104F04EFEF3
:102C50004FF0010004F012FE024640F28873C2F207
:102C600000031A600BE001F0E9FF4FF0010004F0EF
:102C700005FE024640F28873C2F200031A6040F279
:102C80008873C2F200031B68632BECDD01F010FDBA
:102C900001F04EFF4FF0010004F0B4FD4FF00100D1
:102CA0004FF0000104F022FE4FF0010004F0E6FDB9
:102CB000024640F28873C2F200031A600BE001F092
:102CC00033FE4FF0010004F0D9FD024640F2887354
:102CD000C2F200031A6040F28873C2F200031B685C
:102CE000042BECDD01F0E4FC01F042FF01F0E0FC1C
:102CF0004FF0010004F086FD4FF001004FF000019D
:102D000004F0F4FD4FF0010004F0B8FD024640F27B
:102D10008873C2F200031A600BE001F005FE4FF069
:102D2000010004F0ABFD024640F28873C2F20003DA
:102D30001A6040F28873C2F200031B686D2BECDD51
:102D400001F0B6FC01F004FF4FF4617002F0C0FA2C
:102D50004FF0010004F056FD4FF001004FF000016C
:102D600004F0C4FD4FF0010004F088FD024640F27B
:102D70008873C2F200031A600BE001F0F1FD4FF01E
:102D8000010004F07BFD024640F28873C2F20003AA
:102D90001A6040F28873C2F200031B68812BECDDDD
:102DA00001F086FC01F0C4FE4FF0C80002F090FA7A
:102DB00001F07EFC01F0CCFE4FF4967002F088FA30
:102DC00001F076FC01F0D4FE01F072FC4FF001003E
:102DD00002F07EFA01F06CFC4FF0010004F012FDED
:102DE0004FF001004FF0000104F080FD4FF00100B2
:102DF00004F044FD024640F28873C2F200031A60F8
:102E00000BE001F091FD4FF0010004F037FD0246A8
:102E100040F28873C2F200031A6040F28873C2F273
:102E200000031B684A2BECDD01F042FC01F090FE30
:102E30004FF4966002F04CFA4FF0010004F0E2FC0F
:102E40004FF001004FF0000104F050FD4FF0010081
:102E500004F014FD024640F28873C2F200031A60C7
:102E60000BE001F07DFD4FF0010004F007FD02468C
:102E700040F28873C2F200031A6040F28873C2F213
:102E800000031B683B2BECDD01F012FC4FF001004E
:102E900004F0B8FC4FF001004FF0000104F026FDF3
:102EA0004FF0010004F0EAFC024640F28873C2F2DF
:102EB00000031A600BE001F0C1FE4FF0010004F0C6
:102EC000DDFC024640F28873C2F200031A6040F251
:102ED0008873C2F200031B68312BECDD01F0E8FBC4
:102EE00001F026FE4FF0010004F08CFC4FF00100D1
:102EF0004FF0000104F0FAFC4FF0010004F0BEFCBA
:102F0000024640F28873C2F200031A600BE001F03F
:102F100095FE4FF0010004F0B1FC024640F28873C8
:102F2000C2F200031A6040F28873C2F200031B6809
:102F30006D2BECDD01F0BCFB01F01AFE01F0B8FBDB
:102F40004FF0010004F05EFC4FF001004FF0000173
:102F500004F0CCFC4FF0010004F090FC024640F27B
:102F60008873C2F200031A600BE001F0DDFC4FF041
:102F7000010004F083FC024640F28873C2F20003B1
:102F80001A6040F28873C2F200031B68682BECDD04
:102F900001F08EFB01F0E4FC4FF0140002F098F910
:102FA00001F086FB01F0D4FD40F2DA2002F090F946
:102FB0004FF0010004F026FC4FF001004FF000013B
:102FC00004F094FC4FF0010004F058FC024640F27B
:102FD0008873C2F200031A600BE001F0C1FC4FF0ED
:102FE000010004F04BFC024640F28873C2F2000379
:102FF0001A6040F28873C2F200031B68DB2BECDD21
:1030000001F056FB01F094FD4FF0010004F0FAFBD3
:103010004FF001004FF0000104F068FC4FF0010098
:1030200004F02CFC024640F28873C2F200031A60DE
:103030000BE001F0CDFC4FF0010004F01FFC024654
:1030400040F28873C2F200031A6040F28873C2F241
:1030500000031B68632BECDD01F02AFB01F068FD27
:103060004FF0010004F0CEFB4FF001004FF00001E3
:1030700004F03CFC4FF0010004F000FC024640F27A
:103080008873C2F200031A600BE001F069FC4FF094
:10309000010004F0F3FB024640F28873C2F2000321
:1030A0001A6040F28873C2F200031B68312BECDD1A
:1030B00001F0FEFA01F0E0FC4FF4C86002F008F9FC
:1030C00001F0F6FA01F04CFC01F032FB01F0F0FAED
:1030D0004FF0640002F0FCF801F0EAFA01F040FC65
:1030E00001F0AEFC4FF0640002F0F2F801F0E0FAFB
:1030F00001F09CFB01F0DCFA4CF2503002F0E8F8F1
:1031000040F2B873C2F200031B6803F1010240F2FF
:10311000B873C2F200031A604FF0070004F064FDB8
:1031200003461A4640F27C73C2F200031A6040F272
:103130007C73C2F200031B68002B40F0758101F024
:10314000F7FC4FF4967002F0C3F84FF0010004F062
:1031500059FB4FF001004FF0000104F0C7FB4FF0A6
:10316000010004F08BFB024640F28873C2F20003B8
:103170001A600BE001F062FD4FF0010004F07EFBED
:10318000024640F28873C2F200031A6040F288736C
:10319000C2F200031B68632BECDD01F089FA01F039
:1031A000C7FC4FF0010004F02DFB4FF001004FF081
:1031B000000104F09BFB4FF0010004F05FFB0246AE
:1031C00040F28873C2F200031A600BE001F0ACFB1E
:1031D0004FF0010004F052FB024640F28873C2F245
:1031E00000031A6040F28873C2F200031B68042BCC
:1031F000ECDD01F05DFA01F0BBFC01F059FA4FF093
:10320000010004F0FFFA4FF001004FF0000104F05C
:103210006DFB4FF0010004F031FB024640F2887371
:10322000C2F200031A600BE001F07EFB4FF00100D8
:1032300004F024FB024640F28873C2F200031A60D5
:1032400040F28873C2F200031B687C2BECDD01F0B6
:103250002FFA01F07DFC4FF42F7002F039F84FF097
:10326000010004F0CFFA4FF001004FF0000104F02C
:103270003DFB4FF0010004F001FB024640F2887371
:10328000C2F200031A600BE001F0A2FB4FF0010054
:1032900004F0F4FA024640F28873C2F200031A60A6
:1032A00040F28873C2F200031B68B3F5A77FEBDD21
:1032B00001F0FEF901F0DEFC4FF0E60002F008F844
:1032C00001F0F6F901F034FC4FF0E60002F000F8EE
:1032D0004FF0010004F096FA4FF001004FF00001AA
:1032E00004F004FB4FF0010004F0C8FA024640F27B
:1032F0008873C2F200031A600BE001F031FB4FF05B
:10330000010004F0BBFA024640F28873C2F20003E7
:103310001A6040F28873C2F200031B68452BECDD93
:1033200001F0C6F901F0A8FB4FF4A06001F0D0FF56
:1033300001F0BEF901F014FB01F0FAF901F0B8F95F
:1033400001F00EFB01F0F4FB01F07AFB4FF03200CC
:1033500001F0BEFF01F0ACF901F0EAFB01F070FBF7
:103360004FF0B40001F0B4FF01F0A2F901F0DCFA73
:103370004FF0E60001F0ACFF01F09AF901F0F8FB24
:1033800001F096F94FF0010004F03CFA4FF0010013
:103390004FF0000104F0AAFA4FF0010004F06EFAB9
:1033A000024640F28873C2F200031A600BE001F09B
:1033B00045FC4FF0010004F061FA024640F28873C8
:1033C000C2F200031A6040F28873C2F200031B6865
:1033D000F92BECDD01F06CF901F0C2FA4FF4C87082
:1033E00001F076FF01F064F901F046FB40F2145061
:1033F00001F06EFF01F05CF901F0AAFB4FF0C8008C
:1034000001F066FF01F0ACFA01F092F901F050F919
:1034100040F2B873C2F200031B6803F1020240F2EB
:10342000B873C2F200031A604FF0080004F0DCFB2E
:1034300003461A4640F23073C2F200031A6040F2AB
:103440003073C2F200031B68002B40F0758101F05D
:103450006FFB4FF4967001F03BFF4FF0010004F05A
:10346000D1F94FF001004FF0000104F03FFA4FF0A6
:10347000010004F003FA024640F28873C2F200032E
:103480001A600BE001F0F6FB4FF0010004F0F6F9D2
:10349000024640F28873C2F200031A6040F2887359
:1034A000C2F200031B68632BECDD01F001F901F0AF
:1034B0003FFB4FF0010004F0A5F94FF001004FF081
:1034C000000104F013FA4FF0010004F0D7F90246AE
:1034D00040F28873C2F200031A600BE001F024FA94
:1034E0004FF0010004F0CAF9024640F28873C2F2BC
:1034F00000031A6040F28873C2F200031B68042BB9
:10350000ECDD01F0D5F801F033FB01F0D1F84FF01C
:10351000010004F077F94FF001004FF0000104F0D2
:10352000E5F94FF0010004F0A9F9024640F2887372
:10353000C2F200031A600BE001F0F6F94FF001004F
:1035400004F09CF9024640F28873C2F200031A604C
:1035500040F28873C2F200031B687C2BECDD01F0A3
:10356000A7F801F0F5FA4FF42F7001F0B1FE4FF01B
:10357000010004F047F94FF001004FF0000104F0A2
:10358000B5F94FF0010004F079F9024640F2887372
:10359000C2F200031A600BE001F0FEF94FF00100E7
:1035A00004F06CF9024640F28873C2F200031A601C
:1035B00040F28873C2F200031B68B3F5A77FEBDD0E
:1035C00001F076F801F03AFB4FF0E60001F080FEE2
:1035D00001F06EF801F0ACFA4FF0E60001F078FE71
:1035E0004FF0010004F00EF94FF001004FF0000120
:1035F00004F07CF94FF0010004F040F9024640F27B
:103600008873C2F200031A600BE001F0A9F94FF0D1
:10361000010004F033F9024640F28873C2F200035D
:103620001A6040F28873C2F200031B68312BECDD94
:1036300001F03EF801F020FA4FF4A06001F048FEDE
:1036400001F036F801F08CF901F072F801F030F871
:1036500001F086F901F06CFA01F0F2F94FF0320056
:1036600001F036FE01F024F801F062FA01F0E8F909
:103670004FF0640001F02CFE01F01AF801F054F94B
:103680004FF0E60001F024FE01F012F801F070FAAC
:1036900001F00EF84FF0010004F0B4F84FF0010013
:1036A0004FF0000104F022F94FF0010004F0E6F8B9
:1036B000024640F28873C2F200031A600BE001F088
:1036C000D9FA4FF0010004F0D9F8024640F28873AD
:1036D000C2F200031A6040F28873C2F200031B6852
:1036E000F92BECDD00F0E4FF01F03AF94FF4C8707B
:1036F00001F0EEFD00F0DCFF01F0BEF94FF41670B2
:1037000001F0E6FD00F0D4FF01F022FA4FF0C8000E
:1037100001F0DEFD01F024F901F00AF800F0C8FF25
:1037200040F2B873C2F200031B6803F1030240F2D7
:10373000B873C2F200031A604FF0090004F054FAA3
:1037400003461A4640F28C73C2F200031A6040F23C
:103750008C73C2F200031B68002B40F0088201F05A
:1037600007FA00F0A5FF4FF0010004F04BF84FF00E
:1037700001004FF0000104F0B9F84FF0010004F02F
:103780007DF8024640F28873C2F200031A600BE033
:1037900001F0CAF84FF0010004F070F8024640F260
:1037A0008873C2F200031A6040F28873C2F2000309
:1037B0001B686D2BECDD00F07BFF01F0C9F94FF0C9
:1037C000640001F085FD4FF0010004F01BF84FF09C
:1037D00001004FF0000104F089F84FF0010004F0FF
:1037E0004DF8024640F28873C2F200031A600BE003
:1037F00001F0B6F84FF0010004F040F8024640F244
:103800008873C2F200031A6040F28873C2F20003A8
:103810001B68182BECDD00F04BFF01F099F94FF419
:10382000FA7001F055FD4FF0010003F0EBFF4FF08F
:1038300001004FF0000104F059F84FF0010004F0CE
:103840001DF8024640F28873C2F200031A600BE0D2
:1038500001F010FA4FF0010004F010F8024640F2B7
:103860008873C2F200031A6040F28873C2F2000348
:103870001B68952BECDD00F01BFF01F079F900F0DF
:1038800017FF4FF0010003F0BDFF4FF001004FF0B4
:10389000000104F02BF84FF0010003F0EFFF0246A7
:1038A00040F28873C2F200031A600BE001F03CF8AA
:1038B0004FF0010003F0E2FF024640F28873C2F2CB
:1038C00000031A6040F28873C2F200031B684A2B9F
:1038D000ECDD00F0EDFE4FF01E0001F0F9FC00F011
:1038E000E7FE01F035F94FF0010003F08BFF4FF0D8
:1038F00001004FF0000103F0F9FF4FF0010003F069
:10390000BDFF024640F28873C2F200031A600BE06A
:1039100001F026F84FF0010003F0B0FF024640F23C
:103920008873C2F200031A6040F28873C2F2000387
:103930001B68272BECDD00F0BBFE01F009F940F21B
:10394000262001F0C5FC4FF0010003F05BFF4FF0B3
:1039500001004FF0000103F0C9FF4FF0010003F038
:103960008DFF024640F28873C2F200031A600BE03A
:1039700001F080F94FF0010003F080FF024640F2B1
:103980008873C2F200031A6040F28873C2F2000327
:103990001B68952BECDD00F08BFE01F0E9F800F0E0
:1039A00087FE4FF0010003F02DFF4FF001004FF0B4
:1039B000000103F09BFF4FF0010003F05FFF0246A0
:1039C00040F28873C2F200031A600BE000F0ACFF13
:1039D0004FF0010003F052FF024640F28873C2F23A
:1039E00000031A6040F28873C2F200031B684F2B79
:1039F000ECDD00F05DFE01F0ABF840F2523001F07A
:103A000067FC4FF0010003F0FDFE4FF001004FF0A6
:103A1000000103F06BFF4FF0010003F02FFF02469F
:103A200040F28873C2F200031A600BE000F098FFC6
:103A30004FF0010003F022FF024640F28873C2F209
:103A400000031A6040F28873C2F200031B68042B63
:103A5000ECDD00F02DFE01F07BF84FF4E17001F099
:103A600037FC4FF0010003F0CDFE4FF001004FF0A6
:103A7000000103F03BFF4FF0010003F0FFFE0246A0
:103A800040F28873C2F200031A600BE000F084FF7A
:103A90004FF0010003F0F2FE024640F28873C2F2DA
:103AA00000031A6040F28873C2F200031B68952B72
:103AB000ECDD00F0FDFD01F03BF84FF4487001F043
:103AC00007FC4FF0010003F09DFE4FF001004FF0A6
:103AD000000103F00BFF4FF0010003F0CFFE0246A0
:103AE00040F28873C2F200031A600BE000F038FF66
:103AF0004FF0010003F0C2FE024640F28873C2F2AA
:103B000000031A6040F28873C2F200031B68222B84
:103B1000ECDD00F0CDFD00F0AFFF4FF4966001F05A
:103B2000D7FB00F0C5FD00F01BFF00F001FE00F028
:103B3000BFFD00F0BDFD00F013FF4FF0FA0001F0F3
:103B4000C7FB00F0B5FD00F071FE00F0B1FD4CF2D6
:103B5000503001F0BDFB40F2B873C2F200031B68A5
:103B600003F1040240F2B873C2F200031A604FF08E
:103B70000A0004F039F803461A4640F25C73C2F2B8
:103B800000031A6040F25C73C2F200031B68002B52
:103B900040F0C68100F0CCFF4FF42F7001F098FB8D
:103BA0004FF0010003F02EFE4FF001004FF0000136
:103BB00003F09CFE4FF0010003F060FE024640F26D
:103BC0008873C2F200031A600BE000F0ADFE4FF004
:103BD000010003F053FE024640F28873C2F2000374
:103BE0001A6040F28873C2F200031B684F2BECDDB1
:103BF00000F05EFD00F0BCFF00F05AFD00F094FE06
:103C00004FF42F7001F064FB00F052FD00F0A0FFB4
:103C10004FF4487001F05CFB4FF0010003F0F2FD3F
:103C20004FF001004FF0000103F060FE4FF0010083
:103C300003F024FE024640F28873C2F200031A60C9
:103C40000BE000F08DFE4FF0010003F017FE02467E
:103C500040F28873C2F200031A6040F28873C2F225
:103C600000031B68772BECDD00F022FD4FF0010014
:103C700003F0C8FD4FF001004FF0000103F036FEE5
:103C80004FF0010003F0FAFD024640F28873C2F2E1
:103C900000031A600BE000F07FFE4FF0010003F01C
:103CA000EDFD024640F28873C2F200031A6040F252
:103CB0008873C2F200031A6840F25D139A42EADD8B
:103CC00000F0F6FC4FF4C87001F002FB00F0F0FCCD
:103CD0004FF0010003F096FD4FF001004FF000019E
:103CE00003F004FE4FF0010003F0C8FD024640F26D
:103CF0008873C2F200031A600BE000F031FE4FF04F
:103D0000010003F0BBFD024640F28873C2F20003DB
:103D10001A6040F28873C2F200031B68312BECDD9D
:103D200000F0C6FC00F004FF4FF0010003F06AFD54
:103D30004FF001004FF0000103F0D8FD4FF00100FB
:103D400003F09CFD024640F28873C2F200031A6041
:103D50000BE000F073FF4FF0010003F08FFD02460F
:103D600040F28873C2F200031A6040F28873C2F214
:103D700000031B686D2BECDD00F09AFC00F0F8FEF0
:103D800000F096FC4FF0010003F03CFD4FF0010005
:103D90004FF0000103F0AAFD4FF0010003F06EFDAB
:103DA000024640F28873C2F200031A600BE000F092
:103DB000BBFD4FF0010003F061FD024640F2887345
:103DC000C2F200031A6040F28873C2F200031B685B
:103DD0004F2BECDD00F06CFC4FF0010003F012FD06
:103DE0004FF001004FF0000103F080FD4FF00100A3
:103DF00003F044FD024640F28873C2F200031A60E9
:103E00000BE000F0ADFD4FF0010003F037FD02467E
:103E100040F28873C2F200031A6040F28873C2F263
:103E200000031B68012BECDD00F042FC00F090FE6B
:103E30004FF4FA7001F04CFA00F03AFC00F088FE02
:103E40004FF4C87001F044FA4FF0010003F0DAFCBF
:103E50004FF001004FF0000103F048FD4FF001006A
:103E600003F00CFD024640F28873C2F200031A60B0
:103E70000BE000F075FD4FF0010003F0FFFC02467F
:103E800040F28873C2F200031A6040F28873C2F2F3
:103E900000031B684F2BECDD00F00AFC00F048FE2D
:103EA0004FF0010003F0AEFC4FF001004FF00001B5
:103EB00003F01CFD4FF0010003F0E0FC024640F26D
:103EC0008873C2F200031A600BE000F065FD4FF04A
:103ED000010003F0D3FC024640F28873C2F20003F3
:103EE0001A6040F28873C2F200031B68B32BECDD4A
:103EF00000F0DEFB00F01CFC00F0DAFB4CF250306E
:103F000001F0E6F900F0D4FB40F2B873C2F200030E
:103F10001B6803F1050240F2B873C2F200031A6095
:103F20004FF00B0003F060FE03461A4640F2C873E0
:103F3000C2F200031A6040F2C873C2F200031B68A9
:103F4000002B40F0268200F0F3FD4FF0010003F05B
:103F500059FC4FF001004FF0000103F0C7FC4FF097
:103F6000010003F08BFC024640F28873C2F20003AA
:103F70001A600BE000F07EFE4FF0010003F07EFCC3
:103F8000024640F28873C2F200031A6040F288735E
:103F9000C2F200031B68772BECDD00F089FB00F018
:103FA000E7FD00F085FB4FF0010003F02BFC4FF024
:103FB00001004FF0000103F099FC4FF0010003F005
:103FC0005DFC024640F28873C2F200031A600BE007
:103FD00000F0AAFC4FF0010003F050FC024640F252
:103FE0008873C2F200031A6040F28873C2F20003C1
:103FF0001B68772BECDD00F05BFB00F0A9FD40F2C5
:10400000B63001F065F94FF0010003F0FBFB4FF013
:1040100001004FF0000103F069FC4FF0010003F0D4
:104020002DFC024640F28873C2F200031A600BE0D6
:1040300000F096FC4FF0010003F020FC024640F235
:104040008873C2F200031A6040F28873C2F2000360
:104050001B68812BECDD00F02BFB00F069FD4FF0BD
:10406000C80001F035F900F023FB00F071FD4FF4BA
:10407000C87001F02DF900F01BFB00F079FD00F095
:1040800017FB4FF0010001F023F900F011FB4FF096
:10409000010003F0B7FB4FF001004FF0000103F007
:1040A00025FC4FF0010003F0E9FB024640F2887363
:1040B000C2F200031A600BE000F036FC4FF0010082
:1040C00003F0DCFB024640F28873C2F200031A6080
:1040D00040F28873C2F200031B68452BECDD00F050
:1040E000E7FA00F035FD40F24C4001F0F1F84FF0F6
:1040F000010003F087FB4FF001004FF0000103F0D7
:10410000F5FB4FF0010003F0B9FB024640F2887363
:10411000C2F200031A600BE000F022FC4FF0010035
:1041200003F0ACFB024640F28873C2F200031A604F
:1041300040F28873C2F200031B682C2BECDD00F008
:10414000B7FA4FF0010003F05DFB4FF001004FF0B4
:10415000000103F0CBFB4FF0010003F08FFB0246A0
:1041600040F28873C2F200031A600BE000F082FD97
:104170004FF0010003F082FB024640F28873C2F266
:1041800000031A6040F28873C2F200031B68452BDB
:10419000ECDD00F08DFA00F0CBFC4FF0010003F0F5
:1041A00031FB4FF001004FF0000103F09FFB4FF097
:1041B000010003F063FB024640F28873C2F2000381
:1041C0001A600BE000F056FD4FF0010003F056FBC3
:1041D000024640F28873C2F200031A6040F288730C
:1041E000C2F200031B686D2BECDD00F061FA00F0F9
:1041F000BFFC00F05DFA4FF0010003F003FB4FF04D
:1042000001004FF0000103F071FB4FF0010003F0DB
:1042100035FB024640F28873C2F200031A600BE0DD
:1042200000F082FB4FF0010003F028FB024640F251
:104230008873C2F200031A6040F28873C2F200036E
:104240001B68452BECDD00F033FA00F081FC4FF4E5
:10425000877001F03DF800F02BFA00F079FC00F0D7
:104260007FFB4FF0460001F033F800F021FA00F038
:104270006FFC40F2B63001F02BF84FF0010003F074
:10428000C1FA4FF001004FF0000103F02FFB4FF097
:10429000010003F0F3FA024640F28873C2F2000311
:1042A0001A600BE000F078FB4FF0010003F0E6FA33
:1042B000024640F28873C2F200031A6040F288732B
:1042C000C2F200031B68A92BECDD00F0F1F900F04D
:1042D0002FFC4FF4167000F0FBFF4FF0010003F0CD
:1042E00091FA4FF001004FF0000103F0FFFA4FF098
:1042F000010003F0C3FA024640F28873C2F20003E1
:104300001A600BE000F02CFB4FF0010003F0B6FA4E
:10431000024640F28873C2F200031A6040F28873CA
:10432000C2F200031B68422BECDD00F0C1F900F083
:10433000A3FB40F2145000F0CBFF00F0B9F900F0FD
:104340000FFB00F099FB4FF0C80000F0C1FF00F038
:10435000AFF900F0EDF900F0ABF900F001FB4FF020
:10436000640000F0B5FF00F0A3F900F05FFA00F080
:104370009FF94CF2503000F0ABFF40F2B873C2F23C
:1043800000031B6803F1020240F2B873C2F200039B
:104390001A6040F2B873C2F200031B68002B3EF4AF
:1043A00034AC07F10807BD4680BD00BF80B58AB0B8
:1043B00008AF786002E000BF00E000BF4FF00203EA
:1043C00000934FF0090301934FF0010302934FF064
:1043D0000A0303934FF0010304934FF00103059385
:1043E0004FF0000306934FF0000307934FF00100D6
:1043F0004FF003014FF004024FF0010304F058FCAA
:104400004FF001004FF005014FF0020204F004FEEE
:1044100003461A4640F26873C2F200031A604FF076
:10442000020003F0E1FB03461A4640F29073C2F229
:1044300000031A604FF0030003F0D6FB03461A4650
:1044400040F2C473C2F200031A6040F2C473C2F2B5
:1044500000031B68012B0FD140F29073C2F20003DE
:104460001B68012B08D140F26873C2F200031B687D
:10447000002B01D100F0C8FA4FF001004FF0050108
:104480004FF0010204F0C8FD03461A4640F244739F
:10449000C2F200031A604FF0030003F0A5FB0346CD
:1044A0001A4640F2C473C2F200031A6040F2447329
:1044B000C2F200031B68012B08D140F2C473C2F2A0
:1044C00000031B68012B01D100F0BAF84FF0010086
:1044D0004FF005014FF0020204F09EFD03461A461C
:1044E00040F26873C2F200031A604FF0020003F05A
:1044F0007BFB03461A4640F29073C2F200031A6037
:1045000040F26873C2F200031B68012B08D140F22D
:104510009073C2F200031B68012B01D100F058F820
:104520004FF001004FF006014FF0010204F074FD5E
:1045300003461A4640F23473C2F200031A604FF089
:104540000A0003F051FB03461A4640F27073C2F2B0
:1045500000031A6040F23473C2F200031B68012B9F
:1045600008D140F29873C2F200031B68012B01D1FD
:1045700000F0BEFA4FF001004FF006014FF00202CA
:1045800004F04AFD03461A4640F2B473C2F2000337
:104590001A604FF0050003F027FB03461A4640F26D
:1045A0009873C2F200031A6040F2B473C2F20003BF
:1045B0001B68012B7FF4FFAE40F27073C2F2000360
:1045C0001B68012B7FF4F9AE00F072FAF6E600BF2B
:1045D00080B500AF4FF003004FF07F0104F004FA04
:1045E0004FF004004FF07F0104F0FEF94FF005009A
:1045F0006FF07E0104F0F8F94FF006006FF07E01D5
:1046000004F0F2F94FF0010000F062FE4FF00300F9
:104610004FF0000104F0E8F94FF004004FF0000102
:1046200004F0E2F94FF005004FF0000104F0DCF96E
:104630004FF006004FF0000104F0D6F980BD00BF36
:1046400080B500AF4FF003006FF07E0104F0CCF9AD
:104650004FF004006FF07E0104F0C6F94FF0050042
:104660004FF07F0104F0C0F94FF006004FF07F01DA
:1046700004F0BAF94FF0010000F02AFE4FF00300F9
:104680004FF0000104F0B0F94FF004004FF00001CA
:1046900004F0AAF94FF005004FF0000104F0A4F96E
:1046A0004FF006004FF0000104F09EF980BD00BFFE
:1046B00080B500AF4FF001004FF0000104F094F915
:1046C0004FF002004FF0000104F08EF94FF00300AC
:1046D0004FF0000104F088F94FF004004FF00001A2
:1046E00004F082F94FF005004FF0000104F07CF96E
:1046F0004FF006004FF0000104F076F94FF007008C
:104700004FF0000104F070F94FF008004FF0000185
:1047100004F06AF94FF009004FF0000104F064F969
:104720004FF00A004FF0000104F05EF980BD00BFB9
:1047300080B500AF4FF0010000F016FE4FF0010011
:104740004FF0000100F044FE4FF0010000F05CFE6D
:1047500003461A4640F27873C2F200031A604FF023
:10476000030003F041FA03461A4640F2C473C2F252
:1047700000031A602DE04FF003006FF07E0104F09B
:1047800033F94FF004006FF07E0104F02DF94FF083
:1047900005004FF07F0104F027F94FF006004FF0BD
:1047A0007F0104F021F94FF0010000F02DFE0346D7
:1047B0001A4640F27873C2F200031A604FF0030009
:1047C00003F012FA03461A4640F2C473C2F2000321
:1047D0001A6040F2C473C2F200031B68012B08D1B7
:1047E00040F27873C2F200031A6840F6B7339A4277
:1047F000C1DD4FF003004FF0000104F0F5F84FF079
:1048000004004FF0000104F0EFF84FF005004FF006
:10481000000104F0E9F84FF006004FF0000104F049
:10482000E3F84FF0010000F0B9FD80BD80B500AFA6
:104830004FF0020000F098FD4FF002004FF0000131
:1048400000F0C6FD4FF0020000F0DEFD03461A4600
:1048500040F2A473C2F200031A604FF0020003F0AA
:10486000C3F903461A4640F29073C2F200031A607D
:104870002DE04FF003004FF07F0104F0B5F84FF04A
:1048800004004FF07F0104F0AFF84FF005006FF027
:104890007E0104F0A9F84FF006006FF07E0104F0ED
:1048A000A3F84FF0020000F0AFFD03461A4640F2B5
:1048B000A473C2F200031A604FF0020003F094F9EF
:1048C00003461A4640F29073C2F200031A6040F2A7
:1048D0009073C2F200031B68012B08D140F2A4734D
:1048E000C2F200031A6840F6B7339A42C1DD4FF0B6
:1048F00003004FF0000104F077F84FF004004FF090
:10490000000104F071F84FF005004FF0000104F0D1
:104910006BF84FF006004FF0000104F065F84FF01F
:10492000020000F03BFD80BD80B500AF4FF00100FC
:104930006FF07E0104F058F84FF002004FF07F0155
:1049400004F052F84FF009006FF07E0104F04CF8CB
:104950004FF00A004FF07F0104F046F880BD00BF21
:1049600080B500AF4FF001004FF07F0104F03CF83C
:104970004FF002006FF07E0104F036F84FF00900AE
:104980004FF07F0104F030F84FF00A006FF07E0125
:1049900004F02AF880BD00BF80B500AF4FF00100E1
:1049A0004FF07F0104F020F84FF002006FF07E011D
:1049B00004F01AF84FF009006FF07E0104F014F8CB
:1049C0004FF00A004FF07F0104F00EF880BD00BFE9
:1049D00080B500AF4FF001006FF07E0104F004F8E5
:1049E0004FF002004FF07F0103F0FEFF4FF009008F
:1049F0004FF07F0103F0F8FF4FF00A006FF07E01E7
:104A000003F0F2FF80BD00BF80B500AF4FF00300A0
:104A10006FF0060103F0E8FF4FF004006FF00601AD
:104A200003F0E2FF4FF005004FF0070103F0DCFF59
:104A30004FF006004FF0070103F0D6FF80BD00BF26
:104A400080B500AF4FF003004FF07F0103F0CCFFC3
:104A50004FF004004FF07F0103F0C6FF4FF0050058
:104A60006FF07E0103F0C0FF4FF006006FF07E0193
:104A700003F0BAFF80BD00BF80B500AF4FF0030068
:104A80006FF07E0103F0B0FF4FF004006FF07E0185
:104A900003F0AAFF4FF005004FF07F0103F0A4FFE1
:104AA0004FF006004FF07F0103F09EFF80BD00BF76
:104AB00080B500AF4FF007004FF07F0103F094FF87
:104AC0004FF008006FF07E0103F08EFF4FF0010001
:104AD00000F0FEFB4FF007004FF0000103F084FFF1
:104AE0004FF008004FF0000103F07EFF80BD00BFD3
:104AF00080B500AF4FF007006FF07E0103F074FF48
:104B00004FF008004FF07F0103F06EFF4FF00100FF
:104B100000F0DEFB4FF007004FF0000103F064FFF0
:104B20004FF008004FF0000103F05EFF80BD00BFB2
:104B300080B500AF4FF007004FF07F0103F054FF46
:104B40004FF008006FF07E0103F04EFF80BD00BF04
:104B500080B500AF4FF007006FF07E0103F044FF17
:104B60004FF008004FF07F0103F03EFF80BD00BF13
:104B700080B500AF4FF0010000F0F6FB4FF00100F0
:104B80004FF0000100F024FC4FF0010000F03CFC6D
:104B900003461A4640F27873C2F200031A604FF0DF
:104BA0000A0003F021F803461A4640F27073C2F27D
:104BB00000031A6021E04FF007004FF07F0103F07F
:104BC00013FF4FF008006FF07E0103F00DFF4FF070
:104BD000010000F019FC03461A4640F27873C2F255
:104BE00000031A604FF00A0002F0FEFF03461A4667
:104BF00040F27073C2F200031A6040F27073C2F2A6
:104C000000031B68012B08D140F27873C2F2000345
:104C10001A6840F2CF739A42CDDD4FF007004FF093
:104C2000000103F0E1FE4FF008004FF0000103F037
:104C3000DBFE4FF0010000F0B1FB80BD80B500AF9E
:104C40004FF001006FF07E0103F0CEFE4FF0020046
:104C50006FF07E0103F0C8FE4FF009006FF07E0197
:104C600003F0C2FE4FF00A006FF07E0103F0BCFEBD
:104C700080BD00BF80B500AF4FF001004FF07F0155
:104C800003F0B2FE4FF002004FF07F0103F0ACFEE4
:104C90004FF009004FF07F0103F0A6FE4FF00A002D
:104CA0004FF07F0103F0A0FE80BD00BF80B582B051
:104CB00000AF02460B46FA807B71FA887B794FF48D
:104CC000E050C4F2010011461A4607F077FB07F1E5
:104CD0000807BD4680BD00BF80B582B000AF034667
:104CE000FB80FB884FF4E050C4F20100194607F046
:104CF00029FB0346184607F10807BD4680BD00BFE3
:104D000080B582B000AF0346FB7103F0C5F9FB79B3
:104D1000012B02D0FB79022B01D100F0B7F94FF043
:104D200010004FF00101FFF7C1FF4FF0010080F3C9
:104D3000108807F019FFFEE780B500AF40F2F413CA
:104D4000C2F200031B68002B0ADD4FF00100FFF7E1
:104D5000C3FF0346002B14BF00230123DBB209E08D
:104D60004FF00100FFF7B8FF0346002B0CBF0023F4
:104D70000123DBB2184680BD80B500AF4FF00200C2
:104D8000FFF7AAFF0346002B14BF00230123DBB269
:104D9000184680BD80B400AF40F2F413C2F20003A5
:104DA0001B68002B17DB40F2FC13C2F200031B68E8
:104DB000002B10DB40F2F413C2F200031B68002B3F
:104DC00006DC40F2FC13C2F200031B68002B02DD7C
:104DD0004FF0010301E04FF000031846BD4680BCD0
:104DE000704700BF80B584B000AF78604FF000031B
:104DF000FB600CE040F20003C2F20003FA689B186B
:104E00004FF020021A70FB6803F10103FB60FB689E
:104E1000072BEFDD7868FBF7F1FA0346BB60BB6850
:104E2000082B17DC4FF00003FB600FE0FB687A688B
:104E3000D3181B78DAB240F20003C2F20003F9681B
:104E40005B181A70FB6803F10103FB60FA68BB682A
:104E50009A42EBDB07F11007BD4680BD80B483B0FA
:104E600000AF786039607B68B3F1FF3F03D03B68E7
:104E7000B3F1FF3F05D14FF0FF337B604FF0FF33BD
:104E80003B6040F2F413C2F200037A681A6040F209
:104E9000FC13C2F200033A681A6007F10C07BD4622
:104EA00080BC704780B483B000AF0346FB7140F212
:104EB000F813C2F20003FA791A7007F10C07BD4625
:104EC00080BC704780B500AF40F2F413C2F200031B
:104ED0001B68002B21DD00F0DDF9024640F2F413DF
:104EE000C2F200031B689A4217D9FFF725FF034659
:104EF000002B06D04FF001004FF00101FFF7D6FE66
:104F00000BE04FF001004FF00001FFF7CFFE4FF034
:104F100002004FF00101FFF7C9FE4FF001031846F0
:104F200080BD00BF80B500AF4FF00400FFF7D4FE96
:104F30000346002B0CBF00230123DBB2184680BDC3
:104F400080B582B000AF02460B46FA71BB71FB79A7
:104F5000002B11D04FF004004FF00101FFF7A6FE27
:104F6000BB79C82B14BF00230123DBB24FF0200014
:104F70001946FFF79BFE05E04FF004004FF00001DB
:104F8000FFF794FE4FF00400FFF7BAFE07F10807A1
:104F9000BD4680BD80B483B000AF4FF47843C0F607
:104FA00005033B6040F21023C2F200034FF0000201
:104FB0001A604FF000037B602FE07A684FF4FC43E7
:104FC000C0F20123D3184FEA83033B603B681B68A0
:104FD000B3F1FF3F12D07B6803F101023B6819680F
:104FE00040F21023C2F2000343F8221040F265237E
:104FF000C2F200034FF001021A700AE07B6803F16D
:10500000010240F21023C2F200034FF0000143F806
:1050100022107B6803F101037B607B68132BCCDDDE
:105020004FF00003184607F10C07BD4680BC7047DF
:1050300080B485B000AF0346FB714FF00003FB73F3
:1050400019E0FA7B40F60863C2F200034FEA8212CD
:105050009B189B78FA799A4209D1FA7B40F608634B
:10506000C2F200034FEA82129B185B7808E0FB7BD8
:1050700003F10103FB73FB7B092BE2D94FF0000323
:10508000184607F11407BD4680BC704780B584B050
:1050900000AF4FF00003BB734FF00003FB7312E04F
:1050A000FB7B03F1010240F21023C2F2000353F82C
:1050B0002230002B03D04FF00103BB7306E0FB7BD3
:1050C00003F10103FB73FB7B132BE9D94FF00003C2
:1050D0007B734FF00003FB7319E0FA7B40F68C53AF
:1050E000C2F2000353F832301A46F97B40F6DC5323
:1050F000C2F2000353F82130D318002B03D04FF035
:1051000001037B7306E0FB7B03F10103FB73FB7B75
:10511000092BE2D940F26623C2F200031B78002B70
:1051200005D07B7B002B02D04FF0010301E04FF054
:105130000003DAB240F26623C2F200031A7040F2B2
:105140006523C2F200031B78002B0CD1BB7B002B24
:1051500009D140F26623C2F200031B78002B02D172
:105160004FF0FF0380E04FF47843C0F605037B6007
:1051700006F088FE4FF0350006F05EFF4FF47840F1
:10518000C0F6050006F0A8FE0346FB7040F265235A
:10519000C2F200031B78002B02D1BB7B002B22D074
:1051A0004FF00003FB731BE0FA7B4FF4FC43C0F2AB
:1051B0000123D3184FEA83037B60FB7B03F10102D9
:1051C00040F21023C2F2000353F8223078681946E7
:1051D00006F0CEFE0346FB70FB7B03F10103FB737D
:1051E000FB7B132BE0D940F26623C2F200031B784D
:1051F000002B35D04FF00003FB732EE0FA7B47F60F
:105200001463C0F20123D3184FEA83037B60FA7B57
:1052100040F68C53C2F2000353F83230BB60FB7B84
:105220001846FFF705FF0346022B03D1BB68C3F105
:105230000003BB60FA7B40F6DC53C2F2000353F874
:105240002220BB68D3187868194606F091FE034601
:10525000FB70FB7B03F10103FB73FB7B092BCDD9B7
:1052600006F028FE4FF00003184607F11007BD4670
:1052700080BD00BF80B483B000AF40F27823C2F29B
:1052800000031B687B607B68184607F10C07BD466E
:1052900080BC704780B483B000AF40F27823C2F284
:1052A00000031B687B6040F20023C2F200031B680E
:1052B0007A68D21A44F6D353C1F26203A3FB0213F5
:1052C0004FEA9313184607F10C07BD4680BC7047A0
:1052D00080B483B000AF78607B68002B1FDD7B68F3
:1052E00003F00703002B03D17B6803F101037B600C
:1052F0007A6840F27023C2F200031A6040F274230D
:10530000C2F200034FF001021A7000BF40F2742392
:10531000C2F200031B78DBB2002BF7D100E000BF24
:1053200007F10C07BD4680BC704700BF80B582B056
:1053300000AF0346FB71FB79002B02D0FB79062BF3
:105340000AD9FB7940F24C40C0F60100194603F03F
:10535000D3FF4FF0000301E04FF00103184607F1BF
:105360000807BD4680BD00BF80B582B000AF0346D0
:10537000FB71FB791846FFF7D9FF0346002B08D0D5
:10538000FA7940F29823C2F200034FF001019954D8
:1053900000E000BF07F10807BD4680BD80B582B0C0
:1053A00000AF0346FB71FB791846FFF7BFFF0346CA
:1053B000002B08D0FA7940F29823C2F200034FF094
:1053C0000001995400E000BF07F10807BD4680BD09
:1053D00080B582B000AF03463960FB71FB79184697
:1053E000FFF7A4FF0346002B08D0FA7940F27C2394
:1053F000C2F20003396843F8221000E000BF07F151
:105400000807BD4680BD00BF80B584B000AF03462D
:10541000FB71FB791846FFF789FF0346002B02D189
:105420004FF0000308E0FA7940F27C23C2F2000357
:1054300053F82230FB60FB68184607F11007BD46A1
:1054400080BD00BF80B582B000AF40F27823C2F2C9
:1054500000031B6803F1010240F27823C2F200034B
:105460001A6040F27423C2F200031B78DBB2002BF7
:1054700019D040F27023C2F200031B6803F1FF321F
:1054800040F27023C2F200031A6040F27023C2F2AD
:1054900000031B68002B06D140F27423C2F2000304
:1054A0004FF000021A7004F04FFC78607B68002B0C
:1054B00004DB7B68DBB2184604F0C2FC04F05EFE3D
:1054C00005F01CFA40F29823C2F200035B78DBB2CD
:1054D000002B0BD040F27C23C2F200035B6803F187
:1054E000010240F27C23C2F200035A6040F298238A
:1054F000C2F200039B78DBB2002B0BD040F27C237E
:10550000C2F200039B6803F1010240F27C23C2F265
:1055100000039A6040F29823C2F20003DB78DBB20A
:10552000002B0BD040F27C23C2F20003DB6803F1B6
:10553000010240F27C23C2F20003DA6040F29823B9
:10554000C2F200031B79DBB2002B0BD040F27C23AC
:10555000C2F200031B6903F1010240F27C23C2F294
:1055600000031A6140F29823C2F200035B79DBB2B8
:10557000002B0BD040F27C23C2F200035B6903F1E5
:10558000010240F27C23C2F200035A6140F29823E8
:10559000C2F200039B79DBB2002B0BD040F27C23DC
:1055A000C2F200039B6903F1010240F27C23C2F2C4
:1055B00000039A6140F2A023C2F200031B68002B93
:1055C00022D040F2A423C2F200031B6803F1FF3291
:1055D00040F2A423C2F200031A6040F2A423C2F2F4
:1055E00000031B68002B0FD140F2A023C2F200037E
:1055F0001B68984740F2A823C2F200031A6840F2E1
:10560000A423C2F200031A6040F2AC23C2F20003EA
:105610001B68002B22D040F2B023C2F200031B68AB
:1056200003F1FF3240F2B023C2F200031A6040F2ED
:10563000B023C2F200031B68002B0FD140F2AC2351
:10564000C2F200031B68984740F2B423C2F2000381
:105650001A6840F2B023C2F200031A6040F2B82385
:10566000C2F200031B68002B22D040F2BC23C2F21E
:1056700000031B6803F1FF3240F2BC23C2F20003B7
:105680001A6040F2BC23C2F200031B68002B0FD14A
:1056900040F2B823C2F200031B68984740F2C023CF
:1056A000C2F200031A6840F2BC23C2F200031A607F
:1056B00040F2C423C2F200031B68002B22D040F248
:1056C000C823C2F200031B6803F1FF3240F2C82373
:1056D000C2F200031A6040F2C823C2F200031B6842
:1056E000002B0FD140F2C423C2F200031B6898477D
:1056F00040F2CC23C2F200031A6840F2C823C2F27F
:1057000000031A6040F2D023C2F200031B68002B92
:1057100022D040F2D423C2F200031B6803F1FF320F
:1057200040F2D423C2F200031A6040F2D423C2F242
:1057300000031B68002B0FD140F2D023C2F20003FC
:105740001B68984740F2D823C2F200031A6840F25F
:10575000D423C2F200031A6040F2F413C2F2000331
:105760001B68002B00F08F8040F20023C2F2000380
:105770001B68002B00F0878040F2F413C2F2000394
:105780001B68002B2DDD40F21033C2F200031B68B2
:10579000DB7803F00803002B23D040F21033C2F271
:1057A00000031B68DB7823F07F03DBB24FF00200BD
:1057B0001946FFF77BFA40F21033C2F200031B6870
:1057C000DB7803F04003002B0CBF00230123DBB286
:1057D0004FF001001946FFF769FA4FF00A00FFF792
:1057E0008FFAFFF7C9FA0346FB7040F20C23C2F2AE
:1057F00000031B78FA789A4214D040F20C23C2F2CC
:1058000000031B78FF2B06D140F20C23C2F20003E9
:10581000FA781A7006E0FB78002B03D14FF00100F4
:10582000FFF76EFAFB78002B2DD0FFF74BFB0346FA
:10583000002B28D0FFF780FA03461A4640F20823CF
:10584000C2F200031B689A421DD040F20823C2F244
:1058500000031B68FF2B09D1FFF76EFA03461A46B7
:1058600040F20823C2F200031A600CE0FFF764FA6A
:1058700003461A4640F20823C2F200031A604FF0B2
:105880000200FFF73DFA40F26423C2F200031B78E6
:10589000012B1FD140F20433C2F200031A6840F218
:1058A000F3139A420ADD40F20433C2F200034FF0D0
:1058B00000021A604FF00B0002F0EAF940F20433E4
:1058C000C2F200031B6803F1010240F20433C2F28A
:1058D00000031A6040F20833C2F200031B68032B76
:1058E00008DD40F20833C2F200034FF000021A60F4
:1058F00005F000FC40F20833C2F200031B6803F11C
:10590000010240F20833C2F200031A6040F20803B9
:10591000C2F200031B68032B40F3858040F20803AA
:10592000C2F200034FF000021A6040F2DC23C2F220
:1059300000031B68002B22D040F2E023C2F20003D8
:105940001B6803F1FF3240F2E023C2F200031A6049
:1059500040F2E023C2F200031B68002B0FD140F29B
:10596000DC23C2F200031B68984740F2E423C2F232
:1059700000031A6840F2E023C2F200031A6040F20A
:10598000E823C2F200031B68002B22D040F2EC2374
:10599000C2F200031B6803F1FF3240F2EC23C2F2B3
:1059A00000031A6040F2EC23C2F200031B68002BD4
:1059B0000FD140F2E823C2F200031B68984740F27F
:1059C000F023C2F200031A6840F2EC23C2F2000393
:1059D0001A6040F2F423C2F200031B68002B22D0AD
:1059E00040F2F823C2F200031B6803F1FF3240F2D9
:1059F000F823C2F200031A6040F2F823C2F2000357
:105A00001B68002B0FD140F2F423C2F200031B6885
:105A1000984740F2FC23C2F200031A6840F2F823D0
:105A2000C2F200031A6040F20803C2F200031B68CE
:105A300003F1010240F20803C2F200031A6007F109
:105A40000807BD4680BD00BF80B500AF4FF0804065
:105A50004FF0080107F04CFE0346002B00F0B98020
:105A60004FF0804007F036FE03461A4640F26823A6
:105A7000C2F200031A804FF080434FF000029A8474
:105A800040F20133C2F200031B78002B06D140F232
:105A90006A23C2F200034FF001021A8040F2013380
:105AA000C2F200031B78002B76D040F26823C2F2CA
:105AB00000031A8842F227339A426DD840F26823D5
:105AC000C2F200031B88B3F5915F1CD940F26A2330
:105AD000C2F200031A88114640F26823C2F20003A2
